{"abi":[{"type":"function","name":"UPGRADE_INTERFACE_VERSION","inputs":[],"outputs":[{"name":"","type":"string","internalType":"string"}],"stateMutability":"view"},{"type":"function","name":"approve","inputs":[{"name":"to","type":"address","internalType":"address"},{"name":"tokenId","type":"uint256","internalType":"uint256"}],"outputs":[],"stateMutability":"nonpayable"},{"type":"function","name":"balanceOf","inputs":[{"name":"owner","type":"address","internalType":"address"}],"outputs":[{"name":"","type":"uint256","internalType":"uint256"}],"stateMutability":"view"},{"type":"function","name":"certificates","inputs":[{"name":"","type":"uint256","internalType":"uint256"}],"outputs":[{"name":"productId","type":"uint256","internalType":"uint256"},{"name":"productName","type":"string","internalType":"string"},{"name":"isOrganic","type":"bool","internalType":"bool"},{"name":"isSustainable","type":"bool","internalType":"bool"},{"name":"recipient","type":"address","internalType":"address"},{"name":"issuer","type":"address","internalType":"address"},{"name":"issuedAt","type":"uint256","internalType":"uint256"},{"name":"metadataURI","type":"string","internalType":"string"}],"stateMutability":"view"},{"type":"function","name":"getApproved","inputs":[{"name":"tokenId","type":"uint256","internalType":"uint256"}],"outputs":[{"name":"","type":"address","internalType":"address"}],"stateMutability":"view"},{"type":"function","name":"getCertificate","inputs":[{"name":"_tokenId","type":"uint256","internalType":"uint256"}],"outputs":[{"name":"","type":"tuple","internalType":"struct OnchainFarmNFT.Certificate","components":[{"name":"productId","type":"uint256","internalType":"uint256"},{"name":"productName","type":"string","internalType":"string"},{"name":"isOrganic","type":"bool","internalType":"bool"},{"name":"isSustainable","type":"bool","internalType":"bool"},{"name":"recipient","type":"address","internalType":"address"},{"name":"issuer","type":"address","internalType":"address"},{"name":"issuedAt","type":"uint256","internalType":"uint256"},{"name":"metadataURI","type":"string","internalType":"string"}]}],"stateMutability":"view"},{"type":"function","name":"initialize","inputs":[{"name":"_name","type":"string","internalType":"string"},{"name":"_symbol","type":"string","internalType":"string"},{"name":"_marketplaceContract","type":"address","internalType":"address"}],"outputs":[],"stateMutability":"nonpayable"},{"type":"function","name":"isApprovedForAll","inputs":[{"name":"owner","type":"address","internalType":"address"},{"name":"operator","type":"address","internalType":"address"}],"outputs":[{"name":"","type":"bool","internalType":"bool"}],"stateMutability":"view"},{"type":"function","name":"marketplaceContract","inputs":[],"outputs":[{"name":"","type":"address","internalType":"address"}],"stateMutability":"view"},{"type":"function","name":"mintCertificate","inputs":[{"name":"_productId","type":"uint256","internalType":"uint256"},{"name":"_productName","type":"string","internalType":"string"},{"name":"_isOrganic","type":"bool","internalType":"bool"},{"name":"_recipient","type":"address","internalType":"address"}],"outputs":[{"name":"","type":"uint256","internalType":"uint256"}],"stateMutability":"nonpayable"},{"type":"function","name":"name","inputs":[],"outputs":[{"name":"","type":"string","internalType":"string"}],"stateMutability":"view"},{"type":"function","name":"owner","inputs":[],"outputs":[{"name":"","type":"address","internalType":"address"}],"stateMutability":"view"},{"type":"function","name":"ownerOf","inputs":[{"name":"tokenId","type":"uint256","internalType":"uint256"}],"outputs":[{"name":"","type":"address","internalType":"address"}],"stateMutability":"view"},{"type":"function","name":"proxiableUUID","inputs":[],"outputs":[{"name":"","type":"bytes32","internalType":"bytes32"}],"stateMutability":"view"},{"type":"function","name":"renounceOwnership","inputs":[],"outputs":[],"stateMutability":"nonpayable"},{"type":"function","name":"safeTransferFrom","inputs":[{"name":"from","type":"address","internalType":"address"},{"name":"to","type":"address","internalType":"address"},{"name":"tokenId","type":"uint256","internalType":"uint256"}],"outputs":[],"stateMutability":"nonpayable"},{"type":"function","name":"safeTransferFrom","inputs":[{"name":"from","type":"address","internalType":"address"},{"name":"to","type":"address","internalType":"address"},{"name":"tokenId","type":"uint256","internalType":"uint256"},{"name":"data","type":"bytes","internalType":"bytes"}],"outputs":[],"stateMutability":"nonpayable"},{"type":"function","name":"setApprovalForAll","inputs":[{"name":"operator","type":"address","internalType":"address"},{"name":"approved","type":"bool","internalType":"bool"}],"outputs":[],"stateMutability":"nonpayable"},{"type":"function","name":"setMarketplaceContract","inputs":[{"name":"_marketplace","type":"address","internalType":"address"}],"outputs":[],"stateMutability":"nonpayable"},{"type":"function","name":"setMetadataURI","inputs":[{"name":"_tokenId","type":"uint256","internalType":"uint256"},{"name":"_metadataUri","type":"string","internalType":"string"}],"outputs":[],"stateMutability":"nonpayable"},{"type":"function","name":"supportsInterface","inputs":[{"name":"interfaceId","type":"bytes4","internalType":"bytes4"}],"outputs":[{"name":"","type":"bool","internalType":"bool"}],"stateMutability":"view"},{"type":"function","name":"symbol","inputs":[],"outputs":[{"name":"","type":"string","internalType":"string"}],"stateMutability":"view"},{"type":"function","name":"tokenCount","inputs":[],"outputs":[{"name":"","type":"uint256","internalType":"uint256"}],"stateMutability":"view"},{"type":"function","name":"tokenURI","inputs":[{"name":"_tokenId","type":"uint256","internalType":"uint256"}],"outputs":[{"name":"","type":"string","internalType":"string"}],"stateMutability":"view"},{"type":"function","name":"transferFrom","inputs":[{"name":"from","type":"address","internalType":"address"},{"name":"to","type":"address","internalType":"address"},{"name":"tokenId","type":"uint256","internalType":"uint256"}],"outputs":[],"stateMutability":"nonpayable"},{"type":"function","name":"transferOwnership","inputs":[{"name":"newOwner","type":"address","internalType":"address"}],"outputs":[],"stateMutability":"nonpayable"},{"type":"function","name":"upgradeToAndCall","inputs":[{"name":"newImplementation","type":"address","internalType":"address"},{"name":"data","type":"bytes","internalType":"bytes"}],"outputs":[],"stateMutability":"payable"},{"type":"event","name":"Approval","inputs":[{"name":"owner","type":"address","indexed":true,"internalType":"address"},{"name":"approved","type":"address","indexed":true,"internalType":"address"},{"name":"tokenId","type":"uint256","indexed":true,"internalType":"uint256"}],"anonymous":false},{"type":"event","name":"ApprovalForAll","inputs":[{"name":"owner","type":"address","indexed":true,"internalType":"address"},{"name":"operator","type":"address","indexed":true,"internalType":"address"},{"name":"approved","type":"bool","indexed":false,"internalType":"bool"}],"anonymous":false},{"type":"event","name":"CertificateMinted","inputs":[{"name":"tokenId","type":"uint256","indexed":true,"internalType":"uint256"},{"name":"productId","type":"uint256","indexed":true,"internalType":"uint256"},{"name":"recipient","type":"address","indexed":true,"internalType":"address"}],"anonymous":false},{"type":"event","name":"Initialized","inputs":[{"name":"version","type":"uint64","indexed":false,"internalType":"uint64"}],"anonymous":false},{"type":"event","name":"MetadataUpdated","inputs":[{"name":"tokenId","type":"uint256","indexed":true,"internalType":"uint256"},{"name":"metadataURI","type":"string","indexed":false,"internalType":"string"}],"anonymous":false},{"type":"event","name":"OwnershipTransferred","inputs":[{"name":"previousOwner","type":"address","indexed":true,"internalType":"address"},{"name":"newOwner","type":"address","indexed":true,"internalType":"address"}],"anonymous":false},{"type":"event","name":"Transfer","inputs":[{"name":"from","type":"address","indexed":true,"internalType":"address"},{"name":"to","type":"address","indexed":true,"internalType":"address"},{"name":"tokenId","type":"uint256","indexed":true,"internalType":"uint256"}],"anonymous":false},{"type":"event","name":"Upgraded","inputs":[{"name":"implementation","type":"address","indexed":true,"internalType":"address"}],"anonymous":false},{"type":"error","name":"AddressEmptyCode","inputs":[{"name":"target","type":"address","internalType":"address"}]},{"type":"error","name":"ERC1967InvalidImplementation","inputs":[{"name":"implementation","type":"address","internalType":"address"}]},{"type":"error","name":"ERC1967NonPayable","inputs":[]},{"type":"error","name":"ERC721IncorrectOwner","inputs":[{"name":"sender","type":"address","internalType":"address"},{"name":"tokenId","type":"uint256","internalType":"uint256"},{"name":"owner","type":"address","internalType":"address"}]},{"type":"error","name":"ERC721InsufficientApproval","inputs":[{"name":"operator","type":"address","internalType":"address"},{"name":"tokenId","type":"uint256","internalType":"uint256"}]},{"type":"error","name":"ERC721InvalidApprover","inputs":[{"name":"approver","type":"address","internalType":"address"}]},{"type":"error","name":"ERC721InvalidOperator","inputs":[{"name":"operator","type":"address","internalType":"address"}]},{"type":"error","name":"ERC721InvalidOwner","inputs":[{"name":"owner","type":"address","internalType":"address"}]},{"type":"error","name":"ERC721InvalidReceiver","inputs":[{"name":"receiver","type":"address","internalType":"address"}]},{"type":"error","name":"ERC721InvalidSender","inputs":[{"name":"sender","type":"address","internalType":"address"}]},{"type":"error","name":"ERC721NonexistentToken","inputs":[{"name":"tokenId","type":"uint256","internalType":"uint256"}]},{"type":"error","name":"FailedCall","inputs":[]},{"type":"error","name":"InvalidInitialization","inputs":[]},{"type":"error","name":"NotInitializing","inputs":[]},{"type":"error","name":"OnchainFarmNFT__TokenNotFound","inputs":[{"name":"tokenId","type":"uint256","internalType":"uint256"}]},{"type":"error","name":"OnchainFarmNFT__UnauthorizedAccess","inputs":[{"name":"caller","type":"address","internalType":"address"}]},{"type":"error","name":"OwnableInvalidOwner","inputs":[{"name":"owner","type":"address","internalType":"address"}]},{"type":"error","name":"OwnableUnauthorizedAccount","inputs":[{"name":"account","type":"address","internalType":"address"}]},{"type":"error","name":"UUPSUnauthorizedCallContext","inputs":[]},{"type":"error","name":"UUPSUnsupportedProxiableUUID","inputs":[{"name":"slot","type":"bytes32","internalType":"bytes32"}]}],"bytecode":{"object":"0x60a06040523461003e5761001161004d565b610019610043565b61351e6100a882396080518181816128360152818161289b0152612a5c015261351e90f35b610049565b60405190565b5f80fd5b610055610099565b565b60018060a01b031690565b90565b61007961007461007e92610057565b610062565b610057565b90565b61008a90610065565b90565b61009690610081565b90565b6100a23061008d565b60805256fe60806040526004361015610013575b611254565b61001d5f356101cc565b806301ffc9a7146101c757806306fdde03146101c2578063077f224a146101bd578063081812fc146101b8578063087dce94146101b3578063095ea7b3146101ae5780631102610e146101a957806319c96dcb146101a457806323b872dd1461019f57806342842e0e1461019a5780634f1ef2861461019557806351640fee1461019057806352d1902d1461018b5780636352211e14610186578063663b3e221461018157806370a082311461017c578063715018a6146101775780638da5cb5b1461017257806395d89b411461016d5780639f181b5e14610168578063a22cb46514610163578063ad3cb1cc1461015e578063b88d4fde14610159578063c87b56dd14610154578063d1bb5cf11461014f578063e985e9c51461014a5763f2fde38b0361000e57611221565b6111eb565b611189565b61111f565b6110e8565b611054565b610fa8565b610f46565b610ed9565b610ea4565b610e71565b610e3c565b610dfd565b610ad0565b610a9b565b610a41565b610900565b61080b565b6107d7565b610764565b61068e565b61063c565b6105db565b610561565b6104c7565b610307565b610258565b60e01c90565b60405190565b5f80fd5b5f80fd5b5f80fd5b63ffffffff60e01b1690565b6101f9816101e4565b0361020057565b5f80fd5b90503590610211826101f0565b565b9060208282031261022c57610229915f01610204565b90565b6101dc565b151590565b61023f90610231565b9052565b9190610256905f60208501940190610236565b565b346102885761028461027361026e366004610213565b61125c565b61027b6101d2565b91829182610243565b0390f35b6101d8565b5f91031261029757565b6101dc565b5190565b60209181520190565b90825f9392825e0152565b601f801991011690565b6102dd6102e66020936102eb936102d48161029c565b938480936102a0565b958691016102a9565b6102b4565b0190565b6103049160208201915f8184039101526102be565b90565b346103375761031736600461028d565b6103336103226112d5565b61032a6101d2565b918291826102ef565b0390f35b6101d8565b5f80fd5b5f80fd5b634e487b7160e01b5f52604160045260245ffd5b90610362906102b4565b810190811067ffffffffffffffff82111761037c57604052565b610344565b9061039461038d6101d2565b9283610358565b565b67ffffffffffffffff81116103b4576103b06020916102b4565b0190565b610344565b90825f939282370152565b909291926103d96103d482610396565b610381565b938185526020850190828401116103f5576103f3926103b9565b565b610340565b9080601f8301121561041857816020610415933591016103c4565b90565b61033c565b60018060a01b031690565b6104319061041d565b90565b61043d81610428565b0361044457565b5f80fd5b9050359061045582610434565b565b90916060828403126104bd575f82013567ffffffffffffffff81116104b857836104829184016103fa565b9260208301359067ffffffffffffffff82116104b3576104a7816104b09386016103fa565b93604001610448565b90565b6101e0565b6101e0565b6101dc565b5f0190565b346104f6576104e06104da366004610457565b91611680565b6104e86101d2565b806104f2816104c2565b0390f35b6101d8565b90565b610507816104fb565b0361050e57565b5f80fd5b9050359061051f826104fe565b565b9060208282031261053a57610537915f01610512565b90565b6101dc565b61054890610428565b9052565b919061055f905f6020850194019061053f565b565b346105915761058d61057c610577366004610521565b611691565b6105846101d2565b9182918261054c565b0390f35b6101d8565b9190916040818403126105d6576105af835f8301610512565b92602082013567ffffffffffffffff81116105d1576105ce92016103fa565b90565b6101e0565b6101dc565b3461060a576105f46105ee366004610596565b90611973565b6105fc6101d2565b80610606816104c2565b0390f35b6101d8565b9190604083820312610637578061062b610634925f8601610448565b93602001610512565b90565b6101dc565b3461066b5761065561064f36600461060f565b9061197f565b61065d6101d2565b80610667816104c2565b0390f35b6101d8565b9060208282031261068957610686915f01610448565b90565b6101dc565b346106bc576106a66106a1366004610670565b6119b5565b6106ae6101d2565b806106b8816104c2565b0390f35b6101d8565b6106ca81610231565b036106d157565b5f80fd5b905035906106e2826106c1565b565b60808183031261073d576106fa825f8301610512565b92602082013567ffffffffffffffff81116107385761071e846107359285016103fa565b9361072c81604086016106d5565b93606001610448565b90565b6101e0565b6101dc565b61074b906104fb565b9052565b9190610762905f60208501940190610742565b565b346107985761079461078361077a3660046106e4565b92919091611d78565b61078b6101d2565b9182918261074f565b0390f35b6101d8565b90916060828403126107d2576107cf6107b8845f8501610448565b936107c68160208601610448565b93604001610512565b90565b6101dc565b34610806576107f06107ea36600461079d565b91611de9565b6107f86101d2565b80610802816104c2565b0390f35b6101d8565b3461083a5761082461081e36600461079d565b91611e8f565b61082c6101d2565b80610836816104c2565b0390f35b6101d8565b67ffffffffffffffff811161085d576108596020916102b4565b0190565b610344565b909291926108776108728261083f565b610381565b9381855260208501908284011161089357610891926103b9565b565b610340565b9080601f830112156108b6578160206108b393359101610862565b90565b61033c565b9190916040818403126108fb576108d4835f8301610448565b92602082013567ffffffffffffffff81116108f6576108f39201610898565b90565b6101e0565b6101dc565b61091461090e3660046108bb565b90611ece565b61091c6101d2565b80610926816104c2565b0390f35b610933906104fb565b9052565b60209181520190565b61095f61096860209361096d936109568161029c565b93848093610937565b958691016102a9565b6102b4565b0190565b61097a90610231565b9052565b61098790610428565b9052565b610a269160e06109bb61010083016109a95f8601515f86019061092a565b60208501518482036020860152610940565b926109ce60408201516040850190610971565b6109e060608201516060850190610971565b6109f26080820151608085019061097e565b610a0460a082015160a085019061097e565b610a1660c082015160c085019061092a565b01519060e0818403910152610940565b90565b610a3e9160208201915f81840391015261098b565b90565b34610a7157610a6d610a5c610a57366004610521565b612075565b610a646101d2565b91829182610a29565b0390f35b6101d8565b90565b610a8290610a76565b9052565b9190610a99905f60208501940190610a79565b565b34610acb57610aab36600461028d565b610ac7610ab66120f8565b610abe6101d2565b91829182610a86565b0390f35b6101d8565b34610b0057610afc610aeb610ae6366004610521565b61210b565b610af36101d2565b9182918261054c565b0390f35b6101d8565b90565b610b1c610b17610b21926104fb565b610b05565b6104fb565b90565b90610b2e90610b08565b5f5260205260405f2090565b5f1c90565b90565b610b4e610b5391610b3a565b610b3f565b90565b610b609054610b42565b90565b634e487b7160e01b5f52602260045260245ffd5b9060016002830492168015610b97575b6020831014610b9257565b610b63565b91607f1691610b87565b5f5260205f2090565b905f9291805490610bc4610bbd83610b77565b8094610937565b916001811690815f14610c1b5750600114610bdf575b505050565b610bec9192939450610ba1565b915f925b818410610c0357505001905f8080610bda565b60018160209295939554848601520191019290610bf0565b92949550505060ff19168252151560200201905f8080610bda565b90610c4091610baa565b90565b90610c63610c5c92610c536101d2565b93848092610c36565b0383610358565b565b60ff1690565b610c77610c7c91610b3a565b610c65565b90565b610c899054610c6b565b90565b60081c90565b610c9e610ca391610c8c565b610c65565b90565b610cb09054610c92565b90565b60101c90565b60018060a01b031690565b610cd0610cd591610cb3565b610cb9565b90565b610ce29054610cc4565b90565b610cf1610cf691610b3a565b610cb9565b90565b610d039054610ce5565b90565b610d11906001610b24565b90610d1d5f8301610b56565b91610d2a60018201610c43565b91610d3760028301610c7f565b91610d4460028201610ca6565b91610d5160028301610cd8565b91610d5e60038201610cf9565b91610d776005610d7060048501610b56565b9301610c43565b90565b94610dd990610dcf610ded96610dc5610dba8a610de398610dfa9f9d989a9e9a610dac905f6101008501940190610742565b8c60208184039101526102be565b9b60408b0190610236565b6060890190610236565b608087019061053f565b60a085019061053f565b60c0830190610742565b60e08184039101526102be565b90565b34610e3757610e33610e18610e13366004610521565b610d06565b94610e2a9896989491949392936101d2565b98899889610d7a565b0390f35b6101d8565b34610e6c57610e68610e57610e52366004610670565b612136565b610e5f6101d2565b9182918261074f565b0390f35b6101d8565b34610e9f57610e8136600461028d565b610e896121cb565b610e916101d2565b80610e9b816104c2565b0390f35b6101d8565b34610ed457610eb436600461028d565b610ed0610ebf6121d5565b610ec76101d2565b9182918261054c565b0390f35b6101d8565b34610f0957610ee936600461028d565b610f05610ef46121f3565b610efc6101d2565b918291826102ef565b0390f35b6101d8565b1c90565b610f22906008610f279302610f0e565b610b3f565b90565b90610f359154610f12565b90565b610f435f5f90610f2a565b90565b34610f7657610f5636600461028d565b610f72610f61610f38565b610f696101d2565b9182918261074f565b0390f35b6101d8565b9190604083820312610fa35780610f97610fa0925f8601610448565b936020016106d5565b90565b6101dc565b34610fd757610fc1610fbb366004610f7b565b90612212565b610fc96101d2565b80610fd3816104c2565b0390f35b6101d8565b90610fee610fe983610396565b610381565b918252565b5f7f352e302e30000000000000000000000000000000000000000000000000000000910152565b6110246005610fdc565b9061103160208301610ff3565b565b61103b61101a565b90565b611046611033565b90565b61105161103e565b90565b346110845761106436600461028d565b61108061106f611049565b6110776101d2565b918291826102ef565b0390f35b6101d8565b906080828203126110e3576110a0815f8401610448565b926110ae8260208501610448565b926110bc8360408301610512565b92606082013567ffffffffffffffff81116110de576110db9201610898565b90565b6101e0565b6101dc565b3461111a576111046110fb366004611089565b92919091612228565b61110c6101d2565b80611116816104c2565b0390f35b6101d8565b3461114f5761114b61113a611135366004610521565b61227f565b6111426101d2565b918291826102ef565b0390f35b6101d8565b6111649060086111699302610f0e565b610cb9565b90565b906111779154611154565b90565b61118660025f9061116c565b90565b346111b95761119936600461028d565b6111b56111a461117a565b6111ac6101d2565b9182918261054c565b0390f35b6101d8565b91906040838203126111e657806111da6111e3925f8601610448565b93602001610448565b90565b6101dc565b3461121c576112186112076112013660046111be565b906122bf565b61120f6101d2565b91829182610243565b0390f35b6101d8565b3461124f57611239611234366004610670565b612355565b6112416101d2565b8061124b816104c2565b0390f35b6101d8565b5f80fd5b5f90565b611264611258565b508061127f6112796380ac58cd60e01b6101e4565b916101e4565b1480156112a3575b908115611293575b5090565b61129d9150612360565b5f61128f565b50806112be6112b8635b5e139f60e01b6101e4565b916101e4565b14611287565b606090565b6112d290610c43565b90565b6112dd6112c4565b506112f05f6112ea612386565b016112c9565b90565b60401c90565b61130561130a916112f3565b610c65565b90565b61131790546112f9565b90565b67ffffffffffffffff1690565b61133361133891610b3a565b61131a565b90565b6113459054611327565b90565b67ffffffffffffffff1690565b90565b61136c61136761137192611355565b610b05565b611348565b90565b90565b61138b61138661139092611374565b610b05565b611348565b90565b6113a76113a26113ac9261041d565b610b05565b61041d565b90565b6113b890611393565b90565b6113c4906113af565b90565b6113db6113d66113e092611355565b610b05565b6104fb565b90565b5f1b90565b906113fb67ffffffffffffffff916113e3565b9181191691161790565b61141961141461141e92611348565b610b05565b611348565b90565b90565b9061143961143461144092611405565b611421565b82546113e8565b9055565b60401b90565b9061145e68ff000000000000000091611444565b9181191691161790565b61147190610231565b90565b90565b9061148c61148761149392611468565b611474565b825461144a565b9055565b6114a090611377565b9052565b91906114b7905f60208501940190611497565b565b6114c16123aa565b926114d66114d05f860161130d565b15610231565b926114e25f860161133b565b806114f56114ef5f611358565b91611348565b148061160f575b9061151061150a6001611377565b91611348565b14806115e7575b611522909115610231565b90816115d6575b506115ba576115529261154761153f6001611377565b5f8801611424565b846115a8575b611660565b61155a575b50565b611567905f809101611477565b600161159f7fc7f505b2f371ae2175ee4913f4499e1f2633a7b5936321eed1cdaeb6115181d2916115966101d2565b918291826114a4565b0390a15f611557565b6115b560015f8801611477565b61154d565b5f63f92ee8a960e01b8152806115d2600482016104c2565b0390fd5b6115e1915015610231565b5f611529565b506115226115f4306113bb565b3b6116076116015f6113c7565b916104fb565b149050611517565b50846114fc565b9061162760018060a01b03916113e3565b9181191691161790565b61163a906113af565b90565b90565b9061165561165061165c92611631565b61163d565b8254611616565b9055565b61167e929161166e916123d5565b611677336123ff565b6002611640565b565b9061168b92916114b9565b565b5f90565b6116ad9061169d61168d565b506116a78161240a565b50612476565b90565b906116c3916116be8161249e565b6118ad565b565b601f602091010490565b1b90565b919060086116ee9102916116e85f19846116cf565b926116cf565b9181191691161790565b90565b919061171161170c61171993610b08565b6116f8565b9083546116d3565b9055565b5f90565b6117339161172d61171d565b916116fb565b565b5b818110611741575050565b8061174e5f600193611721565b01611736565b9190601f8111611764575b505050565b61177061179593610ba1565b90602061177c846116c5565b8301931061179d575b61178e906116c5565b0190611735565b5f808061175f565b915061178e81929050611785565b906117bb905f1990600802610f0e565b191690565b816117ca916117ab565b906002021790565b906117dc8161029c565b9067ffffffffffffffff821161189c57611800826117fa8554610b77565b85611754565b602090601f831160011461183457918091611823935f92611828575b50506117c0565b90555b565b90915001515f8061181c565b601f1983169161184385610ba1565b925f5b8181106118845750916002939185600196941061186a575b50505002019055611826565b61187a910151601f8416906117ab565b90555f808061185e565b91936020600181928787015181550195019201611846565b610344565b906118ab916117d2565b565b6118b68161210b565b6118c86118c233610428565b91610428565b14158061194f575b611930576118ec8260056118e660018590610b24565b016118a1565b61192b6119197f459157ba24c7ab9878b165ef465fa6ae2ab42bcd8445f576be378768b0c4730992610b08565b926119226101d2565b918291826102ef565b0390a2565b61194b335f918291637b81c4ef60e11b83526004830161054c565b0390fd5b503361196c6119666119616002610cf9565b610428565b91610428565b14156118d0565b9061197d916116b0565b565b90611993919061198d612501565b9161250e565b565b6119a6906119a161251e565b6119a8565b565b6119b3906002611640565b565b6119be90611995565b565b906119d5949392916119d061256c565b611c47565b90565b634e487b7160e01b5f52601160045260245ffd5b6119f5906104fb565b5f198114611a035760010190565b6119d8565b90611a145f19916113e3565b9181191691161790565b90611a33611a2e611a3a92610b08565b6116f8565b8254611a08565b9055565b611a49610100610381565b90565b90611a56906104fb565b9052565b52565b90611a6790610231565b9052565b90611a7590610428565b9052565b611a825f610fdc565b90565b611a8d611a79565b90565b611a9a90516104fb565b90565b5190565b611aab9051610231565b90565b90611aba60ff916113e3565b9181191691161790565b90611ad9611ad4611ae092611468565b611474565b8254611aae565b9055565b60081b90565b90611af761ff0091611ae4565b9181191691161790565b90611b16611b11611b1d92611468565b611474565b8254611aea565b9055565b611b2b9051610428565b90565b60101b90565b90611b4862010000600160b01b0391611b2e565b9181191691161790565b90611b67611b62611b6e92611631565b61163d565b8254611b34565b9055565b90611c3360e06005611c3994611b955f8201611b8f5f8801611a90565b90611a1e565b611bae60018201611ba860208801611a9d565b906118a1565b611bc760028201611bc160408801611aa1565b90611ac4565b611be060028201611bda60608801611aa1565b90611b01565b611bf960028201611bf360808801611b21565b90611b52565b611c1260038201611c0c60a08801611b21565b90611640565b611c2b60048201611c2560c08801611a90565b90611a1e565b019201611a9d565b906118a1565b565b90611c4591611b72565b565b611d1092611cda5f939695611ce39350611c71611c6b611c6687610b56565b6119ec565b86611a1e565b611c8487611c7e87610b56565b906125ae565b611cd1889391611cc887611cbf8b93611cb63397611cad429b611ca5611a3e565b9e8f01611a4c565b60208d01611a5a565b60408b01611a5d565b60608901611a5d565b60808701611a6b565b60a08501611a6b565b60c08301611a4c565b611cf7611cee611a85565b60e08301611a5a565b611d0b6001611d055f610b56565b90610b24565b611c3b565b611d195f610b56565b91611d56611d50611d4a7ff1a3904a1d8c467c050e96c639ec351752bc2221f037d230363aef0c4a363ed195610b08565b92610b08565b92611631565b92611d5f6101d2565b80611d69816104c2565b0390a4611d755f610b56565b90565b90611d8c939291611d8761171d565b6119c0565b90565b611da3611d9e611da892611355565b610b05565b61041d565b90565b611db490611d8f565b90565b604090611de0611de79496959396611dd660608401985f85019061053f565b6020830190610742565b019061053f565b565b919080611e06611e00611dfb5f611dab565b610428565b91610428565b14611e5d57611e1e9082611e18612501565b9161268a565b9182611e32611e2c83610428565b91610428565b03611e3c57505050565b611e599091925f9384936364283d7b60e01b855260048501611db7565b0390fd5b611e80611e695f611dab565b5f918291633250574960e11b83526004830161054c565b0390fd5b611e8c611a79565b90565b91611ea39291611e9d611e84565b92612228565b565b90611eb791611eb2612825565b611eb9565b565b90611ecc91611ec7816128d7565b61294d565b565b90611ed891611ea5565b565b611ee5610100610381565b90565b5f90565b606090565b5f90565b5f90565b611f01611eda565b9060208080808080808089611f14611ee8565b815201611f1f611eec565b815201611f2a611ef1565b815201611f35611ef1565b815201611f40611ef5565b815201611f4b611ef5565b815201611f56611ee8565b815201611f61611eec565b81525050565b611f6f611ef9565b90565b90611f8591611f808261249e565b61205d565b90565b9061204f6120466005611f99611eda565b94611fb0611fa85f8301610b56565b5f8801611a4c565b611fc8611fbf60018301610c43565b60208801611a5a565b611fe0611fd760028301610c7f565b60408801611a5d565b611ff8611fef60028301610ca6565b60608801611a5d565b61201061200760028301610cd8565b60808801611a6b565b61202861201f60038301610cf9565b60a08801611a6b565b61204061203760048301610b56565b60c08801611a4c565b01610c43565b60e08401611a5a565b565b61205a90611f88565b90565b6120729161206d91506001610b24565b612051565b90565b61208690612081611f67565b611f72565b90565b5f90565b61209e90612099612a4b565b6120ec565b90565b90565b6120b86120b36120bd926120a1565b6113e3565b610a76565b90565b6120e97f360894a13ba1a3210667c828492db98dca3e2076cc3735a920a3ca505d382bbc6120a4565b90565b506120f56120c0565b90565b612108612103612089565b61208d565b90565b61211d9061211761168d565b5061240a565b90565b9061212a90611631565b5f5260205260405f2090565b61213e61171d565b50612147612386565b8161216261215c6121575f611dab565b610428565b91610428565b1461217f5761217c9160036121779201612120565b610b56565b90565b6121a261218b5f611dab565b5f9182916322718ad960e21b83526004830161054c565b0390fd5b6121ae61251e565b6121b66121b8565b565b6121c96121c45f611dab565b612aa9565b565b6121d36121a6565b565b6121dd61168d565b506121f05f6121ea612b15565b01610cf9565b90565b6121fb6112c4565b5061220f6001612209612386565b016112c9565b90565b6122269161221e612501565b919091612b39565b565b9161224c939161223a84828491611de9565b612242612501565b9390919293612d0c565b565b906122619161225c8261249e565b612264565b90565b61227661227c92600592506001610b24565b016112c9565b90565b6122909061228b6112c4565b61224e565b90565b9061229d90611631565b5f5260205260405f2090565b906122b390611631565b5f5260205260405f2090565b6122ed916122e36122e8926122d2611258565b5060056122dd612386565b01612293565b6122a9565b610c7f565b90565b612301906122fc61251e565b612303565b565b8061231e6123186123135f611dab565b610428565b91610428565b1461232e5761232c90612aa9565b565b61235161233a5f611dab565b5f918291631e4fbdf760e01b83526004830161054c565b0390fd5b61235e906122f0565b565b612368611258565b5061238261237c6301ffc9a760e01b6101e4565b916101e4565b1490565b7f80bb2b638cc20bc4d0a60d66940f3ab4a00c1d7b313497ca82fb0b4ab007930090565b6123b2612eab565b90565b906123c7916123c2612ebf565b6123c9565b565b906123d391612f29565b565b906123df916123b5565b565b6123f2906123ed612ebf565b6123f4565b565b6123fd90612f9a565b565b612408906123e1565b565b61241261168d565b5061241c81612fa5565b908161243861243261242d5f611dab565b610428565b91610428565b14612441575090565b61245c905f918291637e27328960e01b83526004830161074f565b0390fd5b9061246a90610b08565b5f5260205260405f2090565b61249661249b9161248561168d565b506004612490612386565b01612460565b610cf9565b90565b806124b16124ab5f6113c7565b916104fb565b1480156124df575b6124c05750565b6124db905f9182916317b7503560e31b83526004830161074f565b0390fd5b50806124fb6124f56124f05f610b56565b6104fb565b916104fb565b116124b9565b61250961168d565b503390565b9161251c9291600192612fcd565b565b6125266121d5565b61253f612539612534612501565b610428565b91610428565b0361254657565b612568612551612501565b5f91829163118cdaa760e01b83526004830161054c565b0390fd5b3361258861258261257d6002610cf9565b610428565b91610428565b0361258f57565b6125aa335f918291637b81c4ef60e11b83526004830161054c565b0390fd5b90816125ca6125c46125bf5f611dab565b610428565b91610428565b1461262b576125e391906125dd5f611dab565b9161268a565b6125fd6125f76125f25f611dab565b610428565b91610428565b0361260457565b6126276126105f611dab565b5f9182916339e3563760e11b83526004830161054c565b0390fd5b61264e6126375f611dab565b5f918291633250574960e11b83526004830161054c565b0390fd5b61266661266161266b92611374565b610b05565b6104fb565b90565b9061267991036104fb565b90565b9061268791016104fb565b90565b9061269361168d565b5061272161269f612386565b6126a883612fa5565b94806126c46126be6126b95f611dab565b610428565b91610428565b03612806575b50846126e66126e06126db5f611dab565b610428565b91610428565b036127b0575b836127076127016126fc5f611dab565b610428565b91610428565b03612778575b61271c60028592018490612460565b611640565b829161275f6127596127537fddf252ad1be2c89b69c2b068fc378daa952ba7f163c4a11628f55a4df523b3ef95611631565b92611631565b92610b08565b926127686101d2565b80612772816104c2565b0390a490565b6127ab6127856001612652565b6127a5612796600385018890612120565b916127a083610b56565b61267c565b90611a1e565b61270d565b6127ce6127bc5f611dab565b846127c65f611dab565b905f92612fcd565b6128016127db6001612652565b6127fb6127ec600385018990612120565b916127f683610b56565b61266e565b90611a1e565b6126ec565b612813908690859161314b565b5f6126ca565b612822906113af565b90565b61282e30612819565b61286061285a7f0000000000000000000000000000000000000000000000000000000000000000610428565b91610428565b14801561288a575b61286e57565b5f63703e46dd60e11b815280612886600482016104c2565b0390fd5b506128936131c7565b6128c56128bf7f0000000000000000000000000000000000000000000000000000000000000000610428565b91610428565b1415612868565b506128d561251e565b565b6128e0906128cc565b565b6128eb90611393565b90565b6128f7906128e2565b90565b612903906113af565b90565b60e01b90565b61291581610a76565b0361291c57565b5f80fd5b9050519061292d8261290c565b565b9060208282031261294857612945915f01612920565b90565b6101dc565b919061297b6020612965612960866128ee565b6128fa565b6352d1902d906129736101d2565b938492612906565b8252818061298b600482016104c2565b03915afa80915f92612a1b575b50155f146129cc5750509060016129ad57505b565b6129c8905f918291634c9c8ce360e01b83526004830161054c565b0390fd5b92836129e76129e16129dc6120c0565b610a76565b91610a76565b036129fc576129f79293506131ed565b6129ab565b612a17845f918291632a87526960e21b835260048301610a86565b0390fd5b612a3d91925060203d8111612a44575b612a358183610358565b81019061292f565b905f612998565b503d612a2b565b612a5430612819565b612a86612a807f0000000000000000000000000000000000000000000000000000000000000000610428565b91610428565b03612a8d57565b5f63703e46dd60e11b815280612aa5600482016104c2565b0390fd5b612ab1612b15565b612ac9612abf5f8301610cf9565b915f849101611640565b90612afd612af77f8be0079c531659141344cd1fd0a4f28419497f9722a3daafe3b4186f6b6457e093611631565b91611631565b91612b066101d2565b80612b10816104c2565b0390a3565b7f9016d09d72d40fdae2fd8ceac6b6234c7706214fd39c1cd1e609a0528c19930090565b919091612b44612386565b83612b5f612b59612b545f611dab565b610428565b91610428565b14612bd657612b8690612b81612b7a60058693018590612293565b86906122a9565b611ac4565b919091612bd1612bbf612bb97f17307eab39ab6107e8899845ad3d59bd9653f200f220920489ca2b5937696c3193611631565b93611631565b93612bc86101d2565b91829182610243565b0390a3565b612bf1845f918291630b61174360e31b83526004830161054c565b0390fd5b612bfe90611393565b90565b612c0a90612bf5565b90565b612c16906113af565b90565b90505190612c26826101f0565b565b90602082820312612c4157612c3e915f01612c19565b90565b6101dc565b5190565b60209181520190565b612c72612c7b602093612c8093612c6981612c46565b93848093612c4a565b958691016102a9565b6102b4565b0190565b9092612cb790612cad612cc49694612ca360808601975f87019061053f565b602085019061053f565b6040830190610742565b6060818403910152612c53565b90565b90612cd9612cd48361083f565b610381565b918252565b606090565b3d5f14612cfe57612cf33d612cc7565b903d5f602084013e5b565b612d06612cde565b90612cfc565b9193843b612d22612d1c5f6113c7565b916104fb565b11612d2f575b5050505050565b612d675f602094612d72612d4a612d458a612c01565b612c0d565b9463150b7a02929698612d5b6101d2565b998a9889978896612906565b865260048601612c84565b03925af180915f92612e30575b50155f14612ded57506001612d9a57505b5f80808080612d28565b612da2612ce3565b90612dac82612c46565b612dbe612db85f6113c7565b916104fb565b145f14612de457612de0905f918291633250574960e11b83526004830161054c565b0390fd5b50602081519101fd5b612e06612e00630a85bd0160e11b6101e4565b916101e4565b03612e115750612d90565b612e2c905f918291633250574960e11b83526004830161054c565b0390fd5b612e5291925060203d8111612e59575b612e4a8183610358565b810190612c28565b905f612d7f565b503d612e40565b90565b612e77612e72612e7c92612e60565b6113e3565b610a76565b90565b612ea87ff0c57e16840df040f15088dc2f81fe391c3923bec73e23a9662efc9c229c6a00612e63565b90565b612eb3612089565b50612ebc612e7f565b90565b612ed0612eca613276565b15610231565b612ed657565b5f631afcd79f60e31b815280612eee600482016104c2565b0390fd5b90612f0491612eff612ebf565b612f06565b565b6001612f2792612f20612f17612386565b935f85016118a1565b91016118a1565b565b90612f3391612ef2565b565b612f4690612f41612ebf565b612f48565b565b80612f63612f5d612f585f611dab565b610428565b91610428565b14612f7357612f7190612aa9565b565b612f96612f7f5f611dab565b5f918291631e4fbdf760e01b83526004830161054c565b0390fd5b612fa390612f35565b565b612fc5612fca91612fb461168d565b506002612fbf612386565b01612460565b610cf9565b90565b9091612fd7612386565b93808015613105575b613000575b5050612ffe92916004612ff9929301612460565b611640565b565b6130098461240a565b918061302561301f61301a5f611dab565b610428565b91610428565b1415806130ea575b806130d0575b6130b15750612ff992612ffe959492600492613056575b50925081939450612fe5565b81849061309561308f6130897f8c5be1e5ebec7d5bd14f71427d1e84f3dd0314c0f7b2291e5b200ac8c7c3b92595611631565b92611631565b92610b08565b9261309e6101d2565b806130a8816104c2565b0390a45f61304a565b6130cc905f91829163a9fbf51f60e01b83526004830161054c565b0390fd5b506130e56130df8483906122bf565b15610231565b613033565b50826130fe6130f883610428565b91610428565b141561302d565b508161312161311b6131165f611dab565b610428565b91610428565b1415612fe0565b91602061314992949361314260408201965f83019061053f565b0190610742565b565b61316061315a82848691613294565b15610231565b61316957505050565b61318361317d6131785f611dab565b610428565b91610428565b145f146131a9576131a5825f918291637e27328960e01b83526004830161074f565b0390fd5b6131c35f92839263177e802f60e01b845260048401613128565b0390fd5b6131cf61168d565b506131ea5f6131e46131df6120c0565b613334565b01610cf9565b90565b906131f782613337565b816132227fbc7cd75a20ee27fd9adebab32041f755214dbc6bffa90cc0225b39da2e5c2d3b91611631565b9061322b6101d2565b80613235816104c2565b0390a261324181612c46565b61325361324d5f6113c7565b916104fb565b115f1461326757613263916133c2565b505b565b505061327161338c565b613265565b61327e611258565b506132915f61328b6123aa565b0161130d565b90565b919061329e611258565b50806132ba6132b46132af5f611dab565b610428565b91610428565b141592836132c9575b50505090565b80919293506132e06132da84610428565b91610428565b14908115613322575b509182156132fc575b50505f80806132c3565b61331a91925061330e61331491612476565b92610428565b91610428565b145f806132f2565b61332e915082906122bf565b5f6132e9565b90565b803b61334b6133455f6113c7565b916104fb565b1461336d5761336b905f6133656133606120c0565b613334565b01611640565b565b613388905f918291634c9c8ce360e01b83526004830161054c565b0390fd5b3461339f6133995f6113c7565b916104fb565b116133a657565b5f63b398979f60e01b8152806133be600482016104c2565b0390fd5b906133d6906133cf612cde565b5082613495565b8080613452575b5f146133f05750506133ed6134c6565b90565b5f1461341557613411905f918291639996b31560e01b83526004830161054c565b0390fd5b61341d6134ae565b61342f6134295f6113c7565b916104fb565b115f036134bb575f63d6bda27560e01b81528061344e600482016104c2565b0390fd5b5061345b6134ae565b61346d6134675f6113c7565b916104fb565b11801561347a575b6133dd565b50813b61348f6134895f6113c7565b916104fb565b11613475565b5f9182916134a1611258565b50602082519201905af490565b6134b661171d565b503d90565b6040513d5f823e3d90fd5b6134ce612cde565b50604051903d82523d5f602084013e3d602001820160405256fea26469706673582212201f1fb4ee869b01db24f4e4e48d8a3601505229989f17ef26fe27224bcb2dadaa64736f6c634300081e0033","linkReferences":{}},"methodIdentifiers":{"UPGRADE_INTERFACE_VERSION()":"ad3cb1cc","approve(address,uint256)":"095ea7b3","balanceOf(address)":"70a08231","certificates(uint256)":"663b3e22","getApproved(uint256)":"081812fc","getCertificate(uint256)":"51640fee","initialize(string,string,address)":"077f224a","isApprovedForAll(address,address)":"e985e9c5","marketplaceContract()":"d1bb5cf1","mintCertificate(uint256,string,bool,address)":"19c96dcb","name()":"06fdde03","owner()":"8da5cb5b","ownerOf(uint256)":"6352211e","proxiableUUID()":"52d1902d","renounceOwnership()":"715018a6","safeTransferFrom(address,address,uint256)":"42842e0e","safeTransferFrom(address,address,uint256,bytes)":"b88d4fde","setApprovalForAll(address,bool)":"a22cb465","setMarketplaceContract(address)":"1102610e","setMetadataURI(uint256,string)":"087dce94","supportsInterface(bytes4)":"01ffc9a7","symbol()":"95d89b41","tokenCount()":"9f181b5e","tokenURI(uint256)":"c87b56dd","transferFrom(address,address,uint256)":"23b872dd","transferOwnership(address)":"f2fde38b","upgradeToAndCall(address,bytes)":"4f1ef286"},"id":47}