{"abi":[{"type":"function","name":"UPGRADE_INTERFACE_VERSION","inputs":[],"outputs":[{"name":"","type":"string","internalType":"string"}],"stateMutability":"view"},{"type":"function","name":"buyerOrders","inputs":[{"name":"","type":"address","internalType":"address"},{"name":"","type":"uint256","internalType":"uint256"}],"outputs":[{"name":"","type":"uint256","internalType":"uint256"}],"stateMutability":"view"},{"type":"function","name":"cancelOrder","inputs":[{"name":"_orderId","type":"uint256","internalType":"uint256"}],"outputs":[],"stateMutability":"nonpayable"},{"type":"function","name":"confirmDelivery","inputs":[{"name":"_orderId","type":"uint256","internalType":"uint256"}],"outputs":[],"stateMutability":"nonpayable"},{"type":"function","name":"confirmOrder","inputs":[{"name":"_orderId","type":"uint256","internalType":"uint256"}],"outputs":[],"stateMutability":"nonpayable"},{"type":"function","name":"createOrder","inputs":[{"name":"_productId","type":"uint256","internalType":"uint256"},{"name":"_quantity","type":"uint256","internalType":"uint256"},{"name":"_deliveryAddress","type":"string","internalType":"string"}],"outputs":[{"name":"","type":"uint256","internalType":"uint256"}],"stateMutability":"payable"},{"type":"function","name":"deactivateProduct","inputs":[{"name":"_productId","type":"uint256","internalType":"uint256"}],"outputs":[],"stateMutability":"nonpayable"},{"type":"function","name":"disputeOrder","inputs":[{"name":"_orderId","type":"uint256","internalType":"uint256"},{"name":"_reason","type":"string","internalType":"string"}],"outputs":[],"stateMutability":"nonpayable"},{"type":"function","name":"farmerProducts","inputs":[{"name":"","type":"address","internalType":"address"},{"name":"","type":"uint256","internalType":"uint256"}],"outputs":[{"name":"","type":"uint256","internalType":"uint256"}],"stateMutability":"view"},{"type":"function","name":"feeRecipient","inputs":[],"outputs":[{"name":"","type":"address","internalType":"address"}],"stateMutability":"view"},{"type":"function","name":"getBuyerOrders","inputs":[{"name":"_buyer","type":"address","internalType":"address"}],"outputs":[{"name":"","type":"uint256[]","internalType":"uint256[]"}],"stateMutability":"view"},{"type":"function","name":"getFarmerProducts","inputs":[{"name":"_farmer","type":"address","internalType":"address"}],"outputs":[{"name":"","type":"uint256[]","internalType":"uint256[]"}],"stateMutability":"view"},{"type":"function","name":"getOrder","inputs":[{"name":"_orderId","type":"uint256","internalType":"uint256"}],"outputs":[{"name":"","type":"tuple","internalType":"struct OnchainFarmMarketplace.Order","components":[{"name":"id","type":"uint256","internalType":"uint256"},{"name":"productId","type":"uint256","internalType":"uint256"},{"name":"buyer","type":"address","internalType":"address"},{"name":"seller","type":"address","internalType":"address"},{"name":"quantity","type":"uint256","internalType":"uint256"},{"name":"totalPrice","type":"uint256","internalType":"uint256"},{"name":"status","type":"uint8","internalType":"enum OnchainFarmMarketplace.OrderStatus"},{"name":"deliveryAddress","type":"string","internalType":"string"},{"name":"trackingInfo","type":"string","internalType":"string"},{"name":"createdAt","type":"uint256","internalType":"uint256"},{"name":"deliveredAt","type":"uint256","internalType":"uint256"}]}],"stateMutability":"view"},{"type":"function","name":"getProduct","inputs":[{"name":"_productId","type":"uint256","internalType":"uint256"}],"outputs":[{"name":"","type":"tuple","internalType":"struct OnchainFarmMarketplace.Product","components":[{"name":"id","type":"uint256","internalType":"uint256"},{"name":"farmer","type":"address","internalType":"address"},{"name":"name","type":"string","internalType":"string"},{"name":"description","type":"string","internalType":"string"},{"name":"imageUrl","type":"string","internalType":"string"},{"name":"price","type":"uint256","internalType":"uint256"},{"name":"quantity","type":"uint256","internalType":"uint256"},{"name":"remainingQuantity","type":"uint256","internalType":"uint256"},{"name":"category","type":"string","internalType":"string"},{"name":"location","type":"string","internalType":"string"},{"name":"isActive","type":"bool","internalType":"bool"},{"name":"createdAt","type":"uint256","internalType":"uint256"},{"name":"updatedAt","type":"uint256","internalType":"uint256"}]}],"stateMutability":"view"},{"type":"function","name":"getSellerOrders","inputs":[{"name":"_seller","type":"address","internalType":"address"}],"outputs":[{"name":"","type":"uint256[]","internalType":"uint256[]"}],"stateMutability":"view"},{"type":"function","name":"initialize","inputs":[{"name":"_nftContract","type":"address","internalType":"address"},{"name":"_feeRecipient","type":"address","internalType":"address"},{"name":"_platformFee","type":"uint256","internalType":"uint256"}],"outputs":[],"stateMutability":"nonpayable"},{"type":"function","name":"listProduct","inputs":[{"name":"_name","type":"string","internalType":"string"},{"name":"_description","type":"string","internalType":"string"},{"name":"_imageUrl","type":"string","internalType":"string"},{"name":"_price","type":"uint256","internalType":"uint256"},{"name":"_quantity","type":"uint256","internalType":"uint256"},{"name":"_category","type":"string","internalType":"string"},{"name":"_location","type":"string","internalType":"string"}],"outputs":[{"name":"","type":"uint256","internalType":"uint256"}],"stateMutability":"nonpayable"},{"type":"function","name":"nftContract","inputs":[],"outputs":[{"name":"","type":"address","internalType":"contract IOnchainFarmNFT"}],"stateMutability":"view"},{"type":"function","name":"orderCount","inputs":[],"outputs":[{"name":"","type":"uint256","internalType":"uint256"}],"stateMutability":"view"},{"type":"function","name":"orders","inputs":[{"name":"","type":"uint256","internalType":"uint256"}],"outputs":[{"name":"id","type":"uint256","internalType":"uint256"},{"name":"productId","type":"uint256","internalType":"uint256"},{"name":"buyer","type":"address","internalType":"address"},{"name":"seller","type":"address","internalType":"address"},{"name":"quantity","type":"uint256","internalType":"uint256"},{"name":"totalPrice","type":"uint256","internalType":"uint256"},{"name":"status","type":"uint8","internalType":"enum OnchainFarmMarketplace.OrderStatus"},{"name":"deliveryAddress","type":"string","internalType":"string"},{"name":"trackingInfo","type":"string","internalType":"string"},{"name":"createdAt","type":"uint256","internalType":"uint256"},{"name":"deliveredAt","type":"uint256","internalType":"uint256"}],"stateMutability":"view"},{"type":"function","name":"owner","inputs":[],"outputs":[{"name":"","type":"address","internalType":"address"}],"stateMutability":"view"},{"type":"function","name":"platformFee","inputs":[],"outputs":[{"name":"","type":"uint256","internalType":"uint256"}],"stateMutability":"view"},{"type":"function","name":"productCount","inputs":[],"outputs":[{"name":"","type":"uint256","internalType":"uint256"}],"stateMutability":"view"},{"type":"function","name":"products","inputs":[{"name":"","type":"uint256","internalType":"uint256"}],"outputs":[{"name":"id","type":"uint256","internalType":"uint256"},{"name":"farmer","type":"address","internalType":"address"},{"name":"name","type":"string","internalType":"string"},{"name":"description","type":"string","internalType":"string"},{"name":"imageUrl","type":"string","internalType":"string"},{"name":"price","type":"uint256","internalType":"uint256"},{"name":"quantity","type":"uint256","internalType":"uint256"},{"name":"remainingQuantity","type":"uint256","internalType":"uint256"},{"name":"category","type":"string","internalType":"string"},{"name":"location","type":"string","internalType":"string"},{"name":"isActive","type":"bool","internalType":"bool"},{"name":"createdAt","type":"uint256","internalType":"uint256"},{"name":"updatedAt","type":"uint256","internalType":"uint256"}],"stateMutability":"view"},{"type":"function","name":"proxiableUUID","inputs":[],"outputs":[{"name":"","type":"bytes32","internalType":"bytes32"}],"stateMutability":"view"},{"type":"function","name":"renounceOwnership","inputs":[],"outputs":[],"stateMutability":"nonpayable"},{"type":"function","name":"resolveDispute","inputs":[{"name":"_orderId","type":"uint256","internalType":"uint256"},{"name":"_favorBuyer","type":"bool","internalType":"bool"}],"outputs":[],"stateMutability":"nonpayable"},{"type":"function","name":"sellerOrders","inputs":[{"name":"","type":"address","internalType":"address"},{"name":"","type":"uint256","internalType":"uint256"}],"outputs":[{"name":"","type":"uint256","internalType":"uint256"}],"stateMutability":"view"},{"type":"function","name":"shipOrder","inputs":[{"name":"_orderId","type":"uint256","internalType":"uint256"},{"name":"_trackingInfo","type":"string","internalType":"string"}],"outputs":[],"stateMutability":"nonpayable"},{"type":"function","name":"transferOwnership","inputs":[{"name":"newOwner","type":"address","internalType":"address"}],"outputs":[],"stateMutability":"nonpayable"},{"type":"function","name":"updateProduct","inputs":[{"name":"_productId","type":"uint256","internalType":"uint256"},{"name":"_name","type":"string","internalType":"string"},{"name":"_description","type":"string","internalType":"string"},{"name":"_imageUrl","type":"string","internalType":"string"},{"name":"_price","type":"uint256","internalType":"uint256"},{"name":"_quantity","type":"uint256","internalType":"uint256"},{"name":"_category","type":"string","internalType":"string"},{"name":"_location","type":"string","internalType":"string"}],"outputs":[],"stateMutability":"nonpayable"},{"type":"function","name":"updateTrackingInfo","inputs":[{"name":"_orderId","type":"uint256","internalType":"uint256"},{"name":"_trackingInfo","type":"string","internalType":"string"}],"outputs":[],"stateMutability":"nonpayable"},{"type":"function","name":"upgradeToAndCall","inputs":[{"name":"newImplementation","type":"address","internalType":"address"},{"name":"data","type":"bytes","internalType":"bytes"}],"outputs":[],"stateMutability":"payable"},{"type":"event","name":"DeliveryVerified","inputs":[{"name":"orderId","type":"uint256","indexed":true,"internalType":"uint256"},{"name":"verifier","type":"address","indexed":true,"internalType":"address"},{"name":"proof","type":"string","indexed":false,"internalType":"string"}],"anonymous":false},{"type":"event","name":"Initialized","inputs":[{"name":"version","type":"uint64","indexed":false,"internalType":"uint64"}],"anonymous":false},{"type":"event","name":"OrderCreated","inputs":[{"name":"orderId","type":"uint256","indexed":true,"internalType":"uint256"},{"name":"productId","type":"uint256","indexed":true,"internalType":"uint256"},{"name":"buyer","type":"address","indexed":true,"internalType":"address"},{"name":"seller","type":"address","indexed":false,"internalType":"address"},{"name":"quantity","type":"uint256","indexed":false,"internalType":"uint256"},{"name":"totalPrice","type":"uint256","indexed":false,"internalType":"uint256"}],"anonymous":false},{"type":"event","name":"OrderDelivered","inputs":[{"name":"orderId","type":"uint256","indexed":true,"internalType":"uint256"},{"name":"timestamp","type":"uint256","indexed":false,"internalType":"uint256"}],"anonymous":false},{"type":"event","name":"OrderDisputed","inputs":[{"name":"orderId","type":"uint256","indexed":true,"internalType":"uint256"},{"name":"reason","type":"string","indexed":false,"internalType":"string"}],"anonymous":false},{"type":"event","name":"OrderStatusUpdated","inputs":[{"name":"orderId","type":"uint256","indexed":true,"internalType":"uint256"},{"name":"status","type":"uint8","indexed":false,"internalType":"enum OnchainFarmMarketplace.OrderStatus"}],"anonymous":false},{"type":"event","name":"OwnershipTransferred","inputs":[{"name":"previousOwner","type":"address","indexed":true,"internalType":"address"},{"name":"newOwner","type":"address","indexed":true,"internalType":"address"}],"anonymous":false},{"type":"event","name":"ProductDeactivated","inputs":[{"name":"productId","type":"uint256","indexed":true,"internalType":"uint256"},{"name":"farmer","type":"address","indexed":true,"internalType":"address"}],"anonymous":false},{"type":"event","name":"ProductListed","inputs":[{"name":"productId","type":"uint256","indexed":true,"internalType":"uint256"},{"name":"farmer","type":"address","indexed":true,"internalType":"address"},{"name":"name","type":"string","indexed":false,"internalType":"string"},{"name":"price","type":"uint256","indexed":false,"internalType":"uint256"}],"anonymous":false},{"type":"event","name":"ProductUpdated","inputs":[{"name":"productId","type":"uint256","indexed":true,"internalType":"uint256"},{"name":"farmer","type":"address","indexed":true,"internalType":"address"}],"anonymous":false},{"type":"event","name":"Upgraded","inputs":[{"name":"implementation","type":"address","indexed":true,"internalType":"address"}],"anonymous":false},{"type":"error","name":"AddressEmptyCode","inputs":[{"name":"target","type":"address","internalType":"address"}]},{"type":"error","name":"ERC1967InvalidImplementation","inputs":[{"name":"implementation","type":"address","internalType":"address"}]},{"type":"error","name":"ERC1967NonPayable","inputs":[]},{"type":"error","name":"FailedCall","inputs":[]},{"type":"error","name":"InvalidInitialization","inputs":[]},{"type":"error","name":"NotInitializing","inputs":[]},{"type":"error","name":"OnchainFarmMarketplace__InsufficientFunds","inputs":[{"name":"required","type":"uint256","internalType":"uint256"},{"name":"provided","type":"uint256","internalType":"uint256"}]},{"type":"error","name":"OnchainFarmMarketplace__InvalidInput","inputs":[{"name":"reason","type":"string","internalType":"string"}]},{"type":"error","name":"OnchainFarmMarketplace__OrderNotFound","inputs":[{"name":"orderId","type":"uint256","internalType":"uint256"}]},{"type":"error","name":"OnchainFarmMarketplace__ProductNotFound","inputs":[{"name":"productId","type":"uint256","internalType":"uint256"}]},{"type":"error","name":"OnchainFarmMarketplace__UnauthorizedAccess","inputs":[{"name":"caller","type":"address","internalType":"address"}]},{"type":"error","name":"OwnableInvalidOwner","inputs":[{"name":"owner","type":"address","internalType":"address"}]},{"type":"error","name":"OwnableUnauthorizedAccount","inputs":[{"name":"account","type":"address","internalType":"address"}]},{"type":"error","name":"ReentrancyGuardReentrantCall","inputs":[]},{"type":"error","name":"UUPSUnauthorizedCallContext","inputs":[]},{"type":"error","name":"UUPSUnsupportedProxiableUUID","inputs":[{"name":"slot","type":"bytes32","internalType":"bytes32"}]}],"bytecode":{"object":"0x60a06040523461003e5761001161004d565b610019610043565b6149526101e4823960805181818161405b015281816140c00152614281015261495290f35b610049565b60405190565b5f80fd5b6100556100e3565b565b90565b90565b90565b61007461006f61007992610057565b61005d565b61005a565b90565b6100866001610060565b90565b5f1b90565b9061009a5f1991610089565b9181191691161790565b6100b86100b36100bd9261005a565b61005d565b61005a565b90565b90565b906100d86100d36100df926100a4565b6100c0565b825461008e565b9055565b6100eb61010f565b61010d6100f661007c565b5f6101076101026101cc565b6101e0565b016100c3565b565b610117610119565b565b610121610123565b565b61012b61016c565b565b60018060a01b031690565b61014c6101476101519261012d565b61005d565b61012d565b90565b61015d90610138565b90565b61016990610154565b90565b61017530610160565b608052565b5f90565b90565b90565b61019861019361019d9261017e565b610089565b610181565b90565b6101c97f9b779b17422d0df92223018b32b4d1fa46e071723d6817e2486d003becc55f00610184565b90565b6101d461017a565b506101dd6101a0565b90565b9056fe60806040526004361015610013575b611a4f565b61001d5f3561022c565b80630a5cf042146102275780631794bb3c146102225780632453ffa81461021d57806326232a2e1461021857806334b25ee2146102135780634500cb601461020e57806345cb45051461020957806346904840146102045780634f1ef286146101ff578063514fcac7146101fa57806352d1902d146101f55780635911388a146101f05780636061f754146101eb578063715018a6146101e657806377d716c9146101e15780637acc0b20146101dc5780637b8957c0146101d75780638ac7d79c146101d25780638da5cb5b146101cd5780639d07a8e9146101c8578063a45f2ebc146101c3578063a85c38ef146101be578063ad3cb1cc146101b9578063b9db15b4146101b4578063d09ef241146101af578063d56d229d146101aa578063e0f6ef87146101a5578063e4cbac40146101a0578063f2fde38b1461019b578063f8a3b78014610196578063fd77e5de14610191578063fd84cb971461018c5763fece87720361000e57611a19565b6119b1565b61197e565b611942565b611826565b6117f1565b6117bc565b611779565b6116d6565b6115a4565b611403565b611331565b61112f565b6110fb565b6110c6565b611093565b61105f565b61101a565b610c4c565b610b1f565b610af3565b610a6e565b610978565b610920565b6108d8565b610773565b6106db565b610670565b610544565b6104ba565b610476565b6103d5565b61033e565b60e01c90565b60405190565b5f80fd5b5f80fd5b5f80fd5b60018060a01b031690565b61025890610244565b90565b6102648161024f565b0361026b57565b5f80fd5b9050359061027c8261025b565b565b9060208282031261029757610294915f0161026f565b90565b61023c565b5190565b60209181520190565b60200190565b90565b6102bb906102af565b9052565b906102cc816020936102b2565b0190565b60200190565b906102f36102ed6102e68461029c565b80936102a0565b926102a9565b905f5b8181106103035750505090565b90919261031c61031660019286516102bf565b946102d0565b91019190916102f6565b61033b9160208201915f8184039101526102d6565b90565b3461036e5761036a61035961035436600461027e565b611b06565b610361610232565b91829182610326565b0390f35b610238565b61037c816102af565b0361038357565b5f80fd5b9050359061039482610373565b565b90916060828403126103cb576103c86103b1845f850161026f565b936103bf816020860161026f565b93604001610387565b90565b61023c565b5f0190565b34610404576103ee6103e8366004610396565b91611f12565b6103f6610232565b80610400816103d0565b0390f35b610238565b5f91031261041357565b61023c565b1c90565b90565b61042f9060086104349302610418565b61041c565b90565b90610442915461041f565b90565b61045160035f90610437565b90565b61045d906102af565b9052565b9190610474905f60208501940190610454565b565b346104a657610486366004610409565b6104a2610491610445565b610499610232565b91829182610461565b0390f35b610238565b6104b760075f90610437565b90565b346104ea576104ca366004610409565b6104e66104d56104ab565b6104dd610232565b91829182610461565b0390f35b610238565b151590565b6104fd816104ef565b0361050457565b5f80fd5b90503590610515826104f4565b565b919060408382031261053f578061053361053c925f8601610387565b93602001610508565b90565b61023c565b346105735761055d610557366004610517565b906122d8565b610565610232565b8061056f816103d0565b0390f35b610238565b91906040838203126105a0578061059461059d925f860161026f565b93602001610387565b90565b61023c565b90565b6105bc6105b76105c192610244565b6105a5565b610244565b90565b6105cd906105a8565b90565b6105d9906105c4565b90565b906105e6906105d0565b5f5260205260405f2090565b634e487b7160e01b5f52603260045260245ffd5b5490565b5f5260205f2090565b61061c81610606565b8210156106365761062e60019161060a565b910201905f90565b6105f2565b6106469060056105dc565b61064f81610606565b82101561066c576106699161066391610613565b90610437565b90565b5f80fd5b346106a15761069d61068c610686366004610578565b9061063b565b610694610232565b91829182610461565b0390f35b610238565b6106b19060066105dc565b6106ba81610606565b8210156106d7576106d4916106ce91610613565b90610437565b90565b5f80fd5b3461070c576107086106f76106f1366004610578565b906106a6565b6106ff610232565b91829182610461565b0390f35b610238565b60018060a01b031690565b61072c9060086107319302610418565b610711565b90565b9061073f915461071c565b90565b61074e60085f90610734565b90565b61075a9061024f565b9052565b9190610771905f60208501940190610751565b565b346107a357610783366004610409565b61079f61078e610742565b610796610232565b9182918261075e565b0390f35b610238565b5f80fd5b5f80fd5b601f801991011690565b634e487b7160e01b5f52604160045260245ffd5b906107d8906107b0565b810190811067ffffffffffffffff8211176107f257604052565b6107ba565b9061080a610803610232565b92836107ce565b565b67ffffffffffffffff811161082a576108266020916107b0565b0190565b6107ba565b90825f939282370152565b9092919261084f61084a8261080c565b6107f7565b9381855260208501908284011161086b576108699261082f565b565b6107ac565b9080601f8301121561088e5781602061088b9335910161083a565b90565b6107a8565b9190916040818403126108d3576108ac835f830161026f565b92602082013567ffffffffffffffff81116108ce576108cb9201610870565b90565b610240565b61023c565b6108ec6108e6366004610893565b9061230d565b6108f4610232565b806108fe816103d0565b0390f35b9060208282031261091b57610918915f01610387565b90565b61023c565b3461094e57610938610933366004610902565b6124e1565b610940610232565b8061094a816103d0565b0390f35b610238565b90565b61095f90610953565b9052565b9190610976905f60208501940190610956565b565b346109a857610988366004610409565b6109a461099361255b565b61099b610232565b91829182610963565b0390f35b610238565b67ffffffffffffffff81116109cb576109c76020916107b0565b0190565b6107ba565b909291926109e56109e0826109ad565b6107f7565b93818552602085019082840111610a01576109ff9261082f565b565b6107ac565b9080601f83011215610a2457816020610a21933591016109d0565b90565b6107a8565b919091604081840312610a6957610a42835f8301610387565b92602082013567ffffffffffffffff8111610a6457610a619201610a06565b90565b610240565b61023c565b34610a9d57610a87610a81366004610a29565b90612687565b610a8f610232565b80610a99816103d0565b0390f35b610238565b91606083830312610aee57610ab9825f8501610387565b92610ac78360208301610387565b92604082013567ffffffffffffffff8111610ae957610ae69201610a06565b90565b610240565b61023c565b610b1b610b0a610b04366004610aa2565b91612f4b565b610b12610232565b91829182610461565b0390f35b34610b4d57610b2f366004610409565b610b37612fae565b610b3f610232565b80610b49816103d0565b0390f35b610238565b91909161010081840312610c4757610b6c835f8301610387565b92602082013567ffffffffffffffff8111610c425781610b8d918401610a06565b92604083013567ffffffffffffffff8111610c3d5782610bae918501610a06565b92606081013567ffffffffffffffff8111610c385783610bcf918301610a06565b92610bdd8160808401610387565b92610beb8260a08501610387565b9260c081013567ffffffffffffffff8111610c335783610c0c918301610a06565b9260e082013567ffffffffffffffff8111610c2e57610c2b9201610a06565b90565b610240565b610240565b610240565b610240565b610240565b61023c565b34610c8457610c6e610c5f366004610b52565b969590959491949392936130c6565b610c76610232565b80610c80816103d0565b0390f35b610238565b610c9d610c98610ca2926102af565b6105a5565b6102af565b90565b90610caf90610c89565b5f5260205260405f2090565b5f1c90565b610ccc610cd191610cbb565b61041c565b90565b610cde9054610cc0565b90565b610ced610cf291610cbb565b610711565b90565b610cff9054610ce1565b90565b634e487b7160e01b5f52602260045260245ffd5b9060016002830492168015610d36575b6020831014610d3157565b610d02565b91607f1691610d26565b60209181520190565b5f5260205f2090565b905f9291805490610d6c610d6583610d16565b8094610d40565b916001811690815f14610dc35750600114610d87575b505050565b610d949192939450610d49565b915f925b818410610dab57505001905f8080610d82565b60018160209295939554848601520191019290610d98565b92949550505060ff19168252151560200201905f8080610d82565b90610de891610d52565b90565b90610e0b610e0492610dfb610232565b93848092610dde565b03836107ce565b565b60ff1690565b610e1f610e2491610cbb565b610e0d565b90565b610e319054610e13565b90565b610e3f906001610ca5565b610e4a5f8201610cd4565b91610e5760018301610cf5565b91610e6460028201610deb565b91610e7160038301610deb565b91610e7e60048201610deb565b91610e8b60058301610cd4565b91610e9860068201610cd4565b91610ea560078301610cd4565b91610eb260088201610deb565b91610ebf60098301610deb565b91610ecc600a8201610e27565b91610ee5600c610ede600b8501610cd4565b9301610cd4565b90565b5190565b60209181520190565b90825f9392825e0152565b610f1f610f28602093610f2d93610f1681610ee8565b93848093610eec565b95869101610ef5565b6107b0565b0190565b610f3a906104ef565b9052565b9890611011989b9e9d9b610fd36110189e99610fc96110069a6101809f998f98610ffa9c610fb360a093610fa4610fdd9b610feb9f8f610f97610fc198610f8d6101a08401955f850190610454565b6020830190610751565b6040818403910152610f00565b908d6060818403910152610f00565b908b820360808d0152610f00565b980190610454565b60c08d0190610454565b60e08b0190610454565b8882036101008a0152610f00565b90868203610120880152610f00565b98610140850190610f31565b610160830190610454565b0190610454565b565b3461105a57611056611035611030366004610902565b610e34565b9961104d9d9b9d999199989298979397969496610232565b9d8e9d8e610f3e565b0390f35b610238565b3461108e57611078611072366004610a29565b90613151565b611080610232565b8061108a816103d0565b0390f35b610238565b346110c1576110ab6110a6366004610902565b61324b565b6110b3610232565b806110bd816103d0565b0390f35b610238565b346110f6576110d6366004610409565b6110f26110e161325a565b6110e9610232565b9182918261075e565b0390f35b610238565b3461112a5761111461110e366004610a29565b90613375565b61111c610232565b80611126816103d0565b0390f35b610238565b3461115f5761115b61114a61114536600461027e565b613381565b611152610232565b91829182610326565b0390f35b610238565b9061116e90610c89565b5f5260205260405f2090565b60ff1690565b61118c61119191610cbb565b61117a565b90565b61119e9054611180565b90565b6111ac906004611164565b6111b75f8201610cd4565b916111c460018301610cd4565b916111d160028201610cf5565b916111de60038301610cf5565b916111eb60048201610cd4565b916111f860058301610cd4565b9161120560068201611194565b9161121260078301610deb565b9161121f60088201610deb565b91611238600a61123160098501610cd4565b9301610cd4565b90565b634e487b7160e01b5f52602160045260245ffd5b6006111561125957565b61123b565b906112688261124f565b565b6112739061125e565b90565b61127f9061126a565b9052565b9897969492909593919b9a999b6101608a01965f8b016112a291610454565b60208a016112af91610454565b604089016112bc91610751565b606088016112c991610751565b608087016112d691610454565b60a086016112e391610454565b60c085016112f091611276565b83810360e085015261130191610f00565b82810361010084015261131391610f00565b93610120820161132291610454565b6101400161132f91610454565b565b3461136e5761136a61134c611347366004610902565b6111a1565b976113619b999b979197969296959395610232565b9b8c9b8c611283565b0390f35b610238565b90611385611380836109ad565b6107f7565b918252565b5f7f352e302e30000000000000000000000000000000000000000000000000000000910152565b6113bb6005611373565b906113c86020830161138a565b565b6113d26113b1565b90565b6113dd6113ca565b90565b6113e86113d5565b90565b6114009160208201915f818403910152610f00565b90565b3461143357611413366004610409565b61142f61141e6113e0565b611426610232565b918291826113eb565b0390f35b610238565b6114419061024f565b9052565b61146461146d6020936114729361145b81610ee8565b93848093610d40565b95869101610ef5565b6107b0565b0190565b61147f906104ef565b9052565b9061158990610180806115566115426114f86114e66114d46101a088016114b05f8c01515f8b01906102b2565b6114c260208c015160208b0190611438565b60408b015189820360408b0152611445565b60608a015188820360608a0152611445565b60808901518782036080890152611445565b61150a60a089015160a08801906102b2565b61151c60c089015160c08801906102b2565b61152e60e089015160e08801906102b2565b610100880151868203610100880152611445565b610120870151858203610120870152611445565b9461156b610140820151610140860190611476565b61157f6101608201516101608601906102b2565b01519101906102b2565b90565b6115a19160208201915f818403910152611483565b90565b346115d4576115d06115bf6115ba366004610902565b613603565b6115c7610232565b9182918261158c565b0390f35b610238565b6115e29061126a565b9052565b906116bb906101408061169c611688610160850161160a5f8901515f8801906102b2565b61161c602089015160208801906102b2565b61162e60408901516040880190611438565b61164060608901516060880190611438565b611652608089015160808801906102b2565b61166460a089015160a08801906102b2565b61167660c089015160c08801906115d9565b60e088015186820360e0880152611445565b610100870151858203610100870152611445565b946116b16101208201516101208601906102b2565b01519101906102b2565b90565b6116d39160208201915f8184039101526115e6565b90565b34611706576117026116f16116ec366004610902565b613814565b6116f9610232565b918291826116be565b0390f35b610238565b60018060a01b031690565b61172690600861172b9302610418565b61170b565b90565b906117399154611716565b90565b61174860095f9061172e565b90565b611754906105c4565b90565b6117609061174b565b9052565b9190611777905f60208501940190611757565b565b346117a957611789366004610409565b6117a561179461173c565b61179c610232565b91829182611764565b0390f35b610238565b6117b95f5f90610437565b90565b346117ec576117cc366004610409565b6117e86117d76117ae565b6117df610232565b91829182610461565b0390f35b610238565b346118215761181d61180c61180736600461027e565b613828565b611814610232565b91829182610326565b0390f35b610238565b346118545761183e61183936600461027e565b6138ac565b611846610232565b80611850816103d0565b0390f35b610238565b9060e08282031261193d575f82013567ffffffffffffffff81116119385781611883918401610a06565b92602083013567ffffffffffffffff811161193357826118a4918501610a06565b92604081013567ffffffffffffffff811161192e57836118c5918301610a06565b926118d38160608401610387565b926118e18260808501610387565b9260a081013567ffffffffffffffff81116119295783611902918301610a06565b9260c082013567ffffffffffffffff8111611924576119219201610a06565b90565b610240565b610240565b610240565b610240565b610240565b61023c565b3461197957611975611964611958366004611859565b95949094939193613ac8565b61196c610232565b91829182610461565b0390f35b610238565b346119ac57611996611991366004610902565b613d65565b61199e610232565b806119a8816103d0565b0390f35b610238565b346119df576119c96119c4366004610902565b613f4d565b6119d1610232565b806119db816103d0565b0390f35b610238565b6119ef9060026105dc565b6119f881610606565b821015611a1557611a1291611a0c91610613565b90610437565b90565b5f80fd5b34611a4a57611a46611a35611a2f366004610578565b906119e4565b611a3d610232565b91829182610461565b0390f35b610238565b5f80fd5b606090565b60209181520190565b611a6b9054610cc0565b90565b60010190565b90611a91611a8b611a8484610606565b8093611a58565b9261060a565b905f5b818110611aa15750505090565b909192611ac1611abb600192611ab687611a61565b6102bf565b94611a6e565b9101919091611a94565b90611ad591611a74565b90565b90611af8611af192611ae8610232565b93848092611acb565b03836107ce565b565b611b0390611ad8565b90565b611b1d611b2291611b15611a53565b5060026105dc565b611afa565b90565b60401c90565b611b37611b3c91611b25565b610e0d565b90565b611b499054611b2b565b90565b67ffffffffffffffff1690565b611b65611b6a91610cbb565b611b4c565b90565b611b779054611b59565b90565b67ffffffffffffffff1690565b90565b611b9e611b99611ba392611b87565b6105a5565b611b7a565b90565b90565b611bbd611bb8611bc292611ba6565b6105a5565b611b7a565b90565b611bce906105c4565b90565b611be5611be0611bea92611b87565b6105a5565b6102af565b90565b5f1b90565b90611c0567ffffffffffffffff91611bed565b9181191691161790565b611c23611c1e611c2892611b7a565b6105a5565b611b7a565b90565b90565b90611c43611c3e611c4a92611c0f565b611c2b565b8254611bf2565b9055565b60401b90565b90611c6868ff000000000000000091611c4e565b9181191691161790565b611c7b906104ef565b90565b90565b90611c96611c91611c9d92611c72565b611c7e565b8254611c54565b9055565b611caa90611ba9565b9052565b9190611cc1905f60208501940190611ca1565b565b611ccb613f58565b92611ce0611cda5f8601611b3f565b156104ef565b92611cec5f8601611b6d565b80611cff611cf95f611b8a565b91611b7a565b1480611e19575b90611d1a611d146001611ba9565b91611b7a565b1480611df1575b611d2c9091156104ef565b9081611de0575b50611dc457611d5c92611d51611d496001611ba9565b5f8801611c2e565b84611db2575b611ede565b611d64575b50565b611d71905f809101611c81565b6001611da97fc7f505b2f371ae2175ee4913f4499e1f2633a7b5936321eed1cdaeb6115181d291611da0610232565b91829182611cae565b0390a15f611d61565b611dbf60015f8801611c81565b611d57565b5f63f92ee8a960e01b815280611ddc600482016103d0565b0390fd5b611deb9150156104ef565b5f611d33565b50611d2c611dfe30611bc5565b3b611e11611e0b5f611bd1565b916102af565b149050611d21565b5084611d06565b611e29906105a8565b90565b611e3590611e20565b90565b90611e4960018060a01b0391611bed565b9181191691161790565b611e5c90611e20565b90565b90565b90611e77611e72611e7e92611e53565b611e5f565b8254611e38565b9055565b90565b90611e9a611e95611ea1926105d0565b611e82565b8254611e38565b9055565b90611eb15f1991611bed565b9181191691161790565b90565b90611ed3611ece611eda92610c89565b611ebb565b8254611ea5565b9055565b611f109291611f02611efb611f0993611ef633613f81565b611e2c565b6009611e62565b6008611e85565b6007611ebe565b565b90611f1d9291611cc3565b565b90611f3191611f2c613f8c565b611f33565b565b90611f4691611f4181613fda565b6120e0565b565b90565b5f7f4f72646572206e6f742064697370757465640000000000000000000000000000910152565b611f7f6012602092610eec565b611f8881611f4b565b0190565b611fa19060208101905f818303910152611f72565b90565b611fad906105a8565b90565b611fb990611fa4565b90565b611fc5906105c4565b90565b611fd0610232565b3d5f823e3d90fd5b634e487b7160e01b5f52601160045260245ffd5b611ffb612001919392936102af565b926102af565b9161200d8382026102af565b92818404149015171561201c57565b611fd8565b90565b61203861203361203d92612021565b6105a5565b6102af565b90565b634e487b7160e01b5f52601260045260245ffd5b612060612066916102af565b916102af565b908115612071570490565b612040565b61208561208b919392936102af565b926102af565b820180921161209657565b611fd8565b906120a760ff91611bed565b9181191691161790565b6120ba9061125e565b90565b90565b906120d56120d06120dc926120b1565b6120bd565b825461209b565b9055565b6120ee6120f3916004611164565b611f48565b9061210060068301611194565b61211361210d600561125e565b9161125e565b036122b5575f146121f5575f80808061216a61213160058701610cd4565b61216461215361214360058a01610cd4565b61214d6007610cd4565b90611fec565b61215e612710612024565b90612054565b90612076565b61218661218161217c60028901610cf5565b611fb0565b611fbc565b8282156121ec575bf1156121e757806121d96121a760046121e59401610cd4565b6121d360076121c360016121bd60018801610cd4565b90610ca5565b01916121ce83610cd4565b612076565b90611ebe565b5b6006600391016120c0565b565b611fc8565b506108fc61218e565b5f80808061221561221061220b60038801610cf5565b611fb0565b611fbc565b61222160058701610cd4565b908282156122ac575bf1156122a7575f80808061224e6122496122446008610cf5565b611fb0565b611fbc565b61228161227061226060058901610cd4565b61226a6007610cd4565b90611fec565b61227b612710612024565b90612054565b9082821561229e575bf115612299576121e5906121da565b611fc8565b506108fc61228a565b611fc8565b506108fc61222a565b6122bd610232565b6352c1920360e11b8152806122d460048201611f8c565b0390fd5b906122e291611f1f565b565b906122f6916122f161404a565b6122f8565b565b9061230b91612306816140fc565b614172565b565b90612317916122e4565b565b61232b9061232681613fda565b612342565b565b9190612340905f60208501940190611276565b565b61235661235160048390611164565b611f48565b61236260028201610cf5565b61237461236e3361024f565b9161024f565b141580156124bb575b61249c5761238f6004600683016120c0565b5f8080806123db6123a260058701610cd4565b6123d56123c46123b460058a01610cd4565b6123be6007610cd4565b90611fec565b6123cf612710612024565b90612054565b90612076565b6123f76123f26123ed60028901610cf5565b611fb0565b611fbc565b828215612493575bf11561248e5780612441600761243161241d60046124479601610cd4565b9361242b6001809201610cd4565b90610ca5565b019161243c83610cd4565b612076565b90611ebe565b6004906124896124777fd9a86b644eb5f5b43cc8a700849852481080361c7a4b00ba646d1b46c5585f9592610c89565b92612480610232565b9182918261232d565b0390a2565b611fc8565b506108fc6123ff565b6124b7335f91829163745f5b8960e11b83526004830161075e565b0390fd5b506124c860068201611194565b6124da6124d45f61125e565b9161125e565b141561237d565b6124ea90612319565b565b5f90565b612501906124fc614270565b61254f565b90565b90565b61251b61251661252092612504565b611bed565b610953565b90565b61254c7f360894a13ba1a3210667c828492db98dca3e2076cc3735a920a3ca505d382bbc612507565b90565b50612558612523565b90565b61256b6125666124ec565b6124f0565b90565b906125819161257c81613fda565b612583565b565b61259761259260048390611164565b611f48565b6125a360028201610cf5565b6125b56125af3361024f565b9161024f565b141580612661575b801561263a575b61261b576125d7906006600591016120c0565b6126166126047fd693ccc71a545a9010a955f8be4ad6805536312b27e1d1e5b182869807f0d27b92610c89565b9261260d610232565b918291826113eb565b0390a2565b612636335f91829163745f5b8960e11b83526004830161075e565b0390fd5b5061264760068201611194565b61265a612654600261125e565b9161125e565b14156125c4565b5061266e60038201610cf5565b61268061267a3361024f565b9161024f565b14156125bd565b906126919161256e565b565b5f90565b906126ac9392916126a7826142ce565b6126af565b90565b906126c39392916126be61435d565b612bd4565b906126cc6143b2565b565b90565b60207f6369656e74207175616e74697479000000000000000000000000000000000000917f50726f64756374206e6f7420617661696c61626c65206f7220696e73756666695f8201520152565b61272b602e604092610eec565b612734816126d1565b0190565b61274d9060208101905f81830391015261271e565b90565b91602061277192949361276a60408201965f830190610454565b0190610454565b565b612782612788919392936102af565b926102af565b820391821161279357565b611fd8565b6127a1906102af565b5f1981146127af5760010190565b611fd8565b6127bf6101606107f7565b90565b906127cc906102af565b9052565b906127da9061024f565b9052565b906127e89061125e565b9052565b52565b6127f85f611373565b90565b6128036127ef565b90565b61281090516102af565b90565b61281d905161024f565b90565b61282a905161125e565b90565b5190565b601f602091010490565b1b90565b9190600861285a9102916128545f198461283b565b9261283b565b9181191691161790565b919061287a61287561288293610c89565b611ebb565b90835461283f565b9055565b61289891612892612693565b91612864565b565b5b8181106128a6575050565b806128b35f600193612886565b0161289b565b9190601f81116128c9575b505050565b6128d56128fa93610d49565b9060206128e184612831565b83019310612902575b6128f390612831565b019061289a565b5f80806128c4565b91506128f3819290506128ea565b90612920905f1990600802610418565b191690565b8161292f91612910565b906002021790565b9061294181610ee8565b9067ffffffffffffffff8211612a01576129658261295f8554610d16565b856128b9565b602090601f831160011461299957918091612988935f9261298d575b5050612925565b90555b565b90915001515f80612981565b601f198316916129a885610d49565b925f5b8181106129e9575091600293918560019694106129cf575b5050500201905561298b565b6129df910151601f841690612910565b90555f80806129c3565b919360206001819287870151815501950192016129ab565b6107ba565b90612a1091612937565b565b90612b21610140600a612b2794612a365f8201612a305f8801612806565b90611ebe565b612a4f60018201612a4960208801612806565b90611ebe565b612a6860028201612a6260408801612813565b90611e85565b612a8160038201612a7b60608801612813565b90611e85565b612a9a60048201612a9460808801612806565b90611ebe565b612ab360058201612aad60a08801612806565b90611ebe565b612acc60068201612ac660c08801612820565b906120c0565b612ae560078201612adf60e0880161282d565b90612a06565b612aff60088201612af9610100880161282d565b90612a06565b612b1960098201612b136101208801612806565b90611ebe565b019201612806565b90611ebe565b565b90612b3391612a12565b565b90565b5f5260205f2090565b5490565b612b4e81612b41565b821015612b6857612b60600191612b38565b910201905f90565b6105f2565b9081549168010000000000000000831015612b9d5782612b95916001612b9b95018155612b45565b90612864565b565b6107ba565b604090612bcb612bd29496959396612bc160608401985f850190610751565b6020830190610454565b0190610454565b565b9290919250612bed612be860018490610ca5565b6126ce565b91612c03612bfd600a8501610e27565b156104ef565b8015612f26575b612f0357612c24612c1d60058501610cd4565b8590611fec565b91612c56612c50612c3f85612c396007610cd4565b90611fec565b612c4a612710612024565b90612054565b84612076565b34612c69612c63836102af565b916102af565b10612ee35734612c81612c7b836102af565b916102af565b11612ea0575b50612c926003610cd4565b612c9b90612798565b612ca6906003611ebe565b612cb06003610cd4565b908290339086600101612cc290610cf5565b908887905f929342955f97612cd56127b4565b995f8b0190612ce3916127c2565b60208a0190612cf1916127c2565b6040890190612cff916127d0565b6060880190612d0d916127d0565b6080870190612d1b916127c2565b60a0860190612d29916127c2565b60c0850190612d37916127de565b60e0840190612d45916127ec565b612d4d6127fb565b610100840190612d5c916127ec565b610120830190612d6b916127c2565b612d7490611bd1565b610140820190612d83916127c2565b6004612d8f6003610cd4565b612d9891611164565b90612da291612b29565b600533612dae916105dc565b612db790612b35565b612dc16003610cd4565b612dca91612b6d565b600683600101612dd990610cf5565b612de2916105dc565b612deb90612b35565b612df56003610cd4565b612dfe91612b6d565b838360070190612e0d82610cd4565b90612e1791612773565b612e2091611ebe565b612e2a6003610cd4565b90913393600101612e3a90610cf5565b947f3692c2e473686659b62de88a2ceb823a0585c86bf37d11ac339fcd06e497d5c892612e6690610c89565b93612e7090610c89565b94612e7a906105d0565b95612e83610232565b928392612e909284612ba2565b0390a4612e9d6003610cd4565b90565b5f80808093612ec0612eb9612eb433611fb0565b611fbc565b9134612773565b90828215612eda575bf115612ed5575f612c87565b611fc8565b506108fc612ec9565b3490612eff5f928392633b93b58f60e11b845260048401612750565b0390fd5b612f0b610232565b6352c1920360e11b815280612f2260048201612738565b0390fd5b50612f3360078401610cd4565b612f45612f3f866102af565b916102af565b10612c0a565b90612f5e9291612f59612693565b612697565b90565b612f69613f8c565b612f71612f9b565b565b612f87612f82612f8c92611b87565b6105a5565b610244565b90565b612f9890612f73565b90565b612fac612fa75f612f8f565b6143d6565b565b612fb6612f61565b565b90612fd197969594939291612fcc816142ce565b612fd3565b565b90612fec97969594939291612fe781614442565b612fee565b565b96926002956130486130709661303f61305e946130366130679861302d8f9961307a9f9a613020613025916001610ca5565b6126ce565b9e8f01612a06565b60038d01612a06565b60048b01612a06565b60058901611ebe565b6130558160068901611ebe565b60078701611ebe565b60088501612a06565b60098301612a06565b600c429101611ebe565b336130ae6130a87f4a12324fe7b696e5fb46abf17d655678dcc9f4be1e8bde1fe56c1c99b997070e93610c89565b916105d0565b916130b7610232565b806130c1816103d0565b0390a3565b906130d697969594939291612fb8565b565b906130eb916130e681613fda565b6130ed565b565b6130fb613100916004611164565b611f48565b61310c60038201610cf5565b61311e6131183361024f565b9161024f565b03613132576008613130929101612a06565b565b61314d335f91829163745f5b8960e11b83526004830161075e565b0390fd5b9061315b916130d8565b565b61316f9061316a81613fda565b613171565b565b61318561318060048390611164565b611f48565b61319160038201610cf5565b6131a361319d3361024f565b9161024f565b14158015613225575b613206576131bf906006600191016120c0565b6001906132016131ef7fd9a86b644eb5f5b43cc8a700849852481080361c7a4b00ba646d1b46c5585f9592610c89565b926131f8610232565b9182918261232d565b0390a2565b613221335f91829163745f5b8960e11b83526004830161075e565b0390fd5b5061323260068201611194565b61324461323e5f61125e565b9161125e565b14156131ac565b6132549061315d565b565b5f90565b613262613256565b506132755f61326f61448f565b01610cf5565b90565b9061328b9161328681613fda565b61328d565b565b906132a261329d60048490611164565b611f48565b6132ae60038201610cf5565b6132c06132ba3361024f565b9161024f565b1415801561334e575b61332f5760086132e8926132e16002600685016120c0565b9101612a06565b60029061332a6133187fd9a86b644eb5f5b43cc8a700849852481080361c7a4b00ba646d1b46c5585f9592610c89565b92613321610232565b9182918261232d565b0390a2565b61334a335f91829163745f5b8960e11b83526004830161075e565b0390fd5b5061335b60068201611194565b61336e613368600161125e565b9161125e565b14156132c9565b9061337f91613278565b565b61339861339d91613390611a53565b5060056105dc565b611afa565b90565b6133ab6101a06107f7565b90565b5f90565b5f90565b606090565b5f90565b6020908180808080808080808080806133d66133a0565b9d8e6133e06133ae565b8152016133eb6133b2565b8152016133f66133b6565b8152016134016133b6565b81520161340c6133b6565b8152016134176133ae565b8152016134226133ae565b81520161342d6133ae565b8152016134386133b6565b8152016134436133b6565b81520161344e6133bb565b8152016134596133ae565b8152016134646133ae565b81525050565b6134726133bf565b90565b9061348891613483826142ce565b6135eb565b90565b90613495906104ef565b9052565b906135dd6135d3600c6134aa6133a0565b946134c16134b95f8301610cd4565b5f88016127c2565b6134d96134d060018301610cf5565b602088016127d0565b6134f16134e860028301610deb565b604088016127ec565b61350961350060038301610deb565b606088016127ec565b61352161351860048301610deb565b608088016127ec565b61353961353060058301610cd4565b60a088016127c2565b61355161354860068301610cd4565b60c088016127c2565b61356961356060078301610cd4565b60e088016127c2565b61358261357860088301610deb565b61010088016127ec565b61359b61359160098301610deb565b61012088016127ec565b6135b46135aa600a8301610e27565b610140880161348b565b6135cd6135c3600b8301610cd4565b61016088016127c2565b01610cd4565b61018084016127c2565b565b6135e890613499565b90565b613600916135fb91506001610ca5565b6135df565b90565b6136149061360f61346a565b613475565b90565b6136226101606107f7565b90565b5f90565b613631613617565b906020808080808080808080808c6136476133ae565b8152016136526133ae565b81520161365d6133b2565b8152016136686133b2565b8152016136736133ae565b81520161367e6133ae565b815201613689613625565b8152016136946133b6565b81520161369f6133b6565b8152016136aa6133ae565b8152016136b56133ae565b81525050565b6136c3613629565b90565b906136d9916136d482613fda565b6137fc565b90565b906137ee6137e4600a6136ed613617565b946137046136fc5f8301610cd4565b5f88016127c2565b61371c61371360018301610cd4565b602088016127c2565b61373461372b60028301610cf5565b604088016127d0565b61374c61374360038301610cf5565b606088016127d0565b61376461375b60048301610cd4565b608088016127c2565b61377c61377360058301610cd4565b60a088016127c2565b61379461378b60068301611194565b60c088016127de565b6137ac6137a360078301610deb565b60e088016127ec565b6137c56137bb60088301610deb565b61010088016127ec565b6137de6137d460098301610cd4565b61012088016127c2565b01610cd4565b61014084016127c2565b565b6137f9906136dc565b90565b6138119161380c91506004611164565b6137f0565b90565b613825906138206136bb565b6136c6565b90565b61383f61384491613837611a53565b5060066105dc565b611afa565b90565b61385890613853613f8c565b61385a565b565b8061387561386f61386a5f612f8f565b61024f565b9161024f565b1461388557613883906143d6565b565b6138a86138915f612f8f565b5f918291631e4fbdf760e01b83526004830161075e565b0390fd5b6138b590613847565b565b5f7f496e76616c6964207072696365206f72207175616e7469747900000000000000910152565b6138eb6019602092610eec565b6138f4816138b7565b0190565b61390d9060208101905f8183039101526138de565b90565b61391b6101a06107f7565b90565b61392890516104ef565b90565b9061394061393b61394792611c72565b611c7e565b825461209b565b9055565b90613a8e610180600c613a949461396f5f82016139695f8801612806565b90611ebe565b6139886001820161398260208801612813565b90611e85565b6139a16002820161399b6040880161282d565b90612a06565b6139ba600382016139b46060880161282d565b90612a06565b6139d3600482016139cd6080880161282d565b90612a06565b6139ec600582016139e660a08801612806565b90611ebe565b613a05600682016139ff60c08801612806565b90611ebe565b613a1e60078201613a1860e08801612806565b90611ebe565b613a3860088201613a32610100880161282d565b90612a06565b613a5260098201613a4c610120880161282d565b90612a06565b613a6c600a8201613a66610140880161391e565b9061392b565b613a86600b8201613a806101608801612806565b90611ebe565b019201612806565b90611ebe565b565b90613aa09161394b565b565b92916020613abe613ac69360408701908782035f890152610f00565b940190610454565b565b94929593919091613ad7612693565b5086613aeb613ae55f611bd1565b916102af565b148015613cbf575b613c9c57613b005f610cd4565b613b0990612798565b613b13905f611ebe565b613b1c5f610cd4565b9433948794939289819293946001964298429a613b37613910565b9c5f8e0190613b45916127c2565b60208d0190613b53916127d0565b60408c0190613b61916127ec565b60608b0190613b6f916127ec565b60808a0190613b7d916127ec565b60a0890190613b8b916127c2565b60c0880190613b99916127c2565b60e0870190613ba7916127c2565b610100860190613bb6916127ec565b610120850190613bc5916127ec565b610140840190613bd49161348b565b610160830190613be3916127c2565b610180820190613bf2916127c2565b6001613bfd5f610cd4565b613c0691610ca5565b90613c1091613a96565b600233613c1c916105dc565b613c2590612b35565b613c2e5f610cd4565b613c3791612b6d565b613c405f610cd4565b33917f899c32fbd27a24397979837f3acd7bfee4a37ee60b2d2f1a0643a725f39a7a4991613c6d90610c89565b92613c77906105d0565b93613c80610232565b918291613c8d9183613aa2565b0390a3613c995f610cd4565b90565b613ca4610232565b6352c1920360e11b815280613cbb600482016138f8565b0390fd5b5080613cd3613ccd5f611bd1565b916102af565b14613af3565b613ceb90613ce6816142ce565b613ced565b565b613cff90613cfa81614442565b613d01565b565b613d195f600a613d1360018590610ca5565b0161392b565b33613d4d613d477f3ce9d5d4c93354e5800c5250d08d814fbbe096fa7c05ccb03d2a8b09b7a4888d93610c89565b916105d0565b91613d56610232565b80613d60816103d0565b0390a3565b613d6e90613cd9565b565b613d8290613d7d81613fda565b613d84565b565b613d98613d9360048390611164565b611f48565b613da460028201610cf5565b613db6613db03361024f565b9161024f565b141580613f27575b8015613f00575b613ee157613dd76003600683016120c0565b613de442600a8301611ebe565b5f808080613e1b613e0a613dfa60058801610cd4565b613e046007610cd4565b90611fec565b613e15612710612024565b90612054565b613e35613e30613e2b6008610cf5565b611fb0565b611fbc565b828215613ed8575bf115613ed3575f808083613e706005613e69613e64613e5f6003879a01610cf5565b611fb0565b611fbc565b9201610cd4565b90828215613eca575bf115613ec5574290613ec0613eae7fa8f4a4becaccbb7e9fbfe98b251c48404ddd08ad44e331d6cb7698af92e5427092610c89565b92613eb7610232565b91829182610461565b0390a2565b611fc8565b506108fc613e79565b611fc8565b506108fc613e3d565b613efc335f91829163745f5b8960e11b83526004830161075e565b0390fd5b50613f0d60068201611194565b613f20613f1a600261125e565b9161125e565b1415613dc5565b50613f3460038201610cf5565b613f46613f403361024f565b9161024f565b1415613dbe565b613f5690613d70565b565b613f606144fe565b90565b613f7490613f6f614512565b613f76565b565b613f7f906145aa565b565b613f8a90613f63565b565b613f9461325a565b613fad613fa7613fa26145b5565b61024f565b9161024f565b03613fb457565b613fd6613fbf6145b5565b5f91829163118cdaa760e01b83526004830161075e565b0390fd5b80613fed613fe75f611bd1565b916102af565b14801561401b575b613ffc5750565b614017905f918291631f62eab560e01b835260048301610461565b0390fd5b508061403861403261402d6003610cd4565b6102af565b916102af565b11613ff5565b614047906105c4565b90565b6140533061403e565b61408561407f7f000000000000000000000000000000000000000000000000000000000000000061024f565b9161024f565b1480156140af575b61409357565b5f63703e46dd60e11b8152806140ab600482016103d0565b0390fd5b506140b86145c2565b6140ea6140e47f000000000000000000000000000000000000000000000000000000000000000061024f565b9161024f565b141561408d565b506140fa613f8c565b565b614105906140f1565b565b614110906105a8565b90565b61411c90614107565b90565b614128906105c4565b90565b60e01b90565b61413a81610953565b0361414157565b5f80fd5b9050519061415282614131565b565b9060208282031261416d5761416a915f01614145565b90565b61023c565b91906141a0602061418a61418586614113565b61411f565b6352d1902d90614198610232565b93849261412b565b825281806141b0600482016103d0565b03915afa80915f92614240575b50155f146141f15750509060016141d257505b565b6141ed905f918291634c9c8ce360e01b83526004830161075e565b0390fd5b928361420c614206614201612523565b610953565b91610953565b036142215761421c9293506145ec565b6141d0565b61423c845f918291632a87526960e21b835260048301610963565b0390fd5b61426291925060203d8111614269575b61425a81836107ce565b810190614154565b905f6141bd565b503d614250565b6142793061403e565b6142ab6142a57f000000000000000000000000000000000000000000000000000000000000000061024f565b9161024f565b036142b257565b5f63703e46dd60e11b8152806142ca600482016103d0565b0390fd5b806142e16142db5f611bd1565b916102af565b14801561430f575b6142f05750565b61430b905f91829163fc50a39f60e01b835260048301610461565b0390fd5b508061432b6143256143205f610cd4565b6102af565b916102af565b116142e9565b90565b61434861434361434d92614331565b6105a5565b6102af565b90565b61435a6002614334565b90565b614365614675565b614387614370614350565b5f61438161437c6146ea565b6146fe565b01611ebe565b565b61439d6143986143a292611ba6565b6105a5565b6102af565b90565b6143af6001614389565b90565b6143d46143bd6143a5565b5f6143ce6143c96146ea565b6146fe565b01611ebe565b565b6143de61448f565b6143f66143ec5f8301610cf5565b915f849101611e85565b9061442a6144247f8be0079c531659141344cd1fd0a4f28419497f9722a3daafe3b4186f6b6457e0936105d0565b916105d0565b91614433610232565b8061443d816103d0565b0390a3565b60016144516144579282610ca5565b01610cf5565b6144696144633361024f565b9161024f565b0361447057565b61448b335f91829163745f5b8960e11b83526004830161075e565b0390fd5b7f9016d09d72d40fdae2fd8ceac6b6234c7706214fd39c1cd1e609a0528c19930090565b90565b6144ca6144c56144cf926144b3565b611bed565b610953565b90565b6144fb7ff0c57e16840df040f15088dc2f81fe391c3923bec73e23a9662efc9c229c6a006144b6565b90565b6145066124ec565b5061450f6144d2565b90565b61452361451d614705565b156104ef565b61452957565b5f631afcd79f60e31b815280614541600482016103d0565b0390fd5b61455690614551614512565b614558565b565b8061457361456d6145685f612f8f565b61024f565b9161024f565b1461458357614581906143d6565b565b6145a661458f5f612f8f565b5f918291631e4fbdf760e01b83526004830161075e565b0390fd5b6145b390614545565b565b6145bd613256565b503390565b6145ca613256565b506145e55f6145df6145da612523565b614723565b01610cf5565b90565b5190565b906145f682614726565b816146217fbc7cd75a20ee27fd9adebab32041f755214dbc6bffa90cc0225b39da2e5c2d3b916105d0565b9061462a610232565b80614634816103d0565b0390a2614640816145e8565b61465261464c5f611bd1565b916102af565b115f1461466657614662916147b6565b505b565b505061467061477b565b614664565b61467d614889565b61468357565b5f633ee5aeb560e01b81528061469b600482016103d0565b0390fd5b90565b6146b66146b16146bb9261469f565b611bed565b610953565b90565b6146e77f9b779b17422d0df92223018b32b4d1fa46e071723d6817e2486d003becc55f006146a2565b90565b6146f26124ec565b506146fb6146be565b90565b90565b5f90565b61470d614701565b506147205f61471a613f58565b01611b3f565b90565b90565b803b61473a6147345f611bd1565b916102af565b1461475c5761475a905f61475461474f612523565b614723565b01611e85565b565b614777905f918291634c9c8ce360e01b83526004830161075e565b0390fd5b3461478e6147885f611bd1565b916102af565b1161479557565b5f63b398979f60e01b8152806147ad600482016103d0565b0390fd5b606090565b906147ca906147c36147b1565b50826148c9565b8080614846575b5f146147e45750506147e16148fa565b90565b5f1461480957614805905f918291639996b31560e01b83526004830161075e565b0390fd5b6148116148e2565b61482361481d5f611bd1565b916102af565b115f036148ef575f63d6bda27560e01b815280614842600482016103d0565b0390fd5b5061484f6148e2565b61486161485b5f611bd1565b916102af565b11801561486e575b6147d1565b50813b61488361487d5f611bd1565b916102af565b11614869565b614891614701565b506148ac5f6148a66148a16146ea565b6146fe565b01610cd4565b6148c56148bf6148ba614350565b6102af565b916102af565b1490565b5f9182916148d5614701565b50602082519201905af490565b6148ea612693565b503d90565b6040513d5f823e3d90fd5b6149026147b1565b50604051903d82523d5f602084013e3d602001820160405256fea2646970667358221220aa583da6ce56e7995a7f2263858b644d0502d7f968fa484137600cda85c5208c64736f6c634300081e0033","linkReferences":{}},"methodIdentifiers":{"UPGRADE_INTERFACE_VERSION()":"ad3cb1cc","buyerOrders(address,uint256)":"4500cb60","cancelOrder(uint256)":"514fcac7","confirmDelivery(uint256)":"fd84cb97","confirmOrder(uint256)":"8ac7d79c","createOrder(uint256,uint256,string)":"6061f754","deactivateProduct(uint256)":"fd77e5de","disputeOrder(uint256,string)":"5911388a","farmerProducts(address,uint256)":"fece8772","feeRecipient()":"46904840","getBuyerOrders(address)":"a45f2ebc","getFarmerProducts(address)":"0a5cf042","getOrder(uint256)":"d09ef241","getProduct(uint256)":"b9db15b4","getSellerOrders(address)":"e4cbac40","initialize(address,address,uint256)":"1794bb3c","listProduct(string,string,string,uint256,uint256,string,string)":"f8a3b780","nftContract()":"d56d229d","orderCount()":"2453ffa8","orders(uint256)":"a85c38ef","owner()":"8da5cb5b","platformFee()":"26232a2e","productCount()":"e0f6ef87","products(uint256)":"7acc0b20","proxiableUUID()":"52d1902d","renounceOwnership()":"715018a6","resolveDispute(uint256,bool)":"34b25ee2","sellerOrders(address,uint256)":"45cb4505","shipOrder(uint256,string)":"9d07a8e9","transferOwnership(address)":"f2fde38b","updateProduct(uint256,string,string,string,uint256,uint256,string,string)":"77d716c9","updateTrackingInfo(uint256,string)":"7b8957c0","upgradeToAndCall(address,bytes)":"4f1ef286"},"id":46}